:04000000ABEF0AF068
:1000080000C016F001C015F0E1CF17F0E2CF18F0EC
:100018009EAABAD046EC07F000C0E6F00001E7530C
:10002800D8B497D073D07A6BE651430A02E1010E37
:10003800E86FE651410A02E10B0EE86FE651450A06
:1000480002E11F0EE86F84D0E6514D0A03E1020E6B
:10005800E86F07D0E6514F0A03E1160EE86F01D0AA
:10006800E86B76D0E651440A05E1010E7A6F280E56
:10007800E86F01D0E86B6CD0E6514F0A03E10C0E33
:10008800E86F01D0E86B64D0E6514B0A05E1020E37
:100098007A6F280EE86F01D0E86B5AD0E6514E0A05
:1000A80003E1170EE86F01D0E86B52D0E6514E0A13
:1000B80006E1030E7A6F010EB46F030EB36FE86B9F
:1000C80047D0E6514E0A03E1200EE86F01D0E86BF5
:1000D8003FD0E651440A05E1040E7A6F280EE86F16
:1000E80001D0E86B35D0E6510D0A03E1290EE86F1F
:1000F80001D0E86B2DD0E6510A0A04E1010EB46F75
:100108007AC0B3F0E86B24D0E86B22D0E851000A3B
:100118008AE0E851010A98E0E851020AA3E0E851B0
:100128000B0AAAE0E8510C0AAFE0E851160AB6E05B
:10013800E851170ABBE0E8511F0AC3E0E851200A5A
:10014800C8E0E851280ACFE0E851290AD4E0DCD712
:100158001BD0E6510D0A0CE1D60EE16E000EE26EE0
:10016800D551E126D8B0E22AE66A010EE96F0BD034
:10017800D60EE16E000EE26ED551E126D8B0E22A25
:10018800E6C0E6FFD52B9E9A16C000F015C001F018
:0A01980017C0E1FF18C0E2FF1100DC
:0E01A200026A016A006A086A036A000E12000F
:1001B0000B840BAEE3EF00F0010E036E026A016ADE
:0A01C000006A0A360232FF0E120038
:0801CA000AAE029E000E1200B5
:1001D2000C6A0E6A0250D8A402EF01F001C002F0CC
:1001E20000C001F0006A0E860250D8A402EF01F0AE
:1001F20001C002F0016A0E960E880250D8B414EFC4
:1002020001F00E50035ED8A4D8A019EF01F0D890E7
:1002120002BE1EEF01F0003601360236032E09EF50
:1002220001F019EF01F0010E0C6EBADF21EF01F0BF
:10023200020E0C6EBCDF21EF01F0040E0C6EC4DF67
:020242001200A8
:0A024400850E0D6E0D2EFED7120080
:10024E003A0E0C6E230E0D6E0D2EFED70C2EFCD715
:02025E0012008C
:0C026000020E0D6E0D2EFED700001200E5
:10026C000B820BAE40EF01F0036802680168006876
:08027C000A360232FF0E1200E7
:100284000CB084EF01F00CA22AEF02F00E6A000E0B
:1002940002649BEF01F0F00E0214D8A466EF01F0A3
:1002A400023A01380F0B02260138F00B016E0038B8
:1002B4000F0B01260038F00B006E08380F0B0026D8
:1002C4000838F00B086E0E84D89002BE7FEF01F060
:1002D40008360036013602360E2A02BE7FEF01F0E0
:1002E40008360036013602360E2A02BE7FEF01F0D0
:1002F40008360036013602360E2A0E50036420EF0B
:1003040002F0035E0BBC08AE25EF02F0D880800E2D
:1003140008640030000E002201220222D8A025EF3A
:1003240002F0023201320032034A2AEF02F025EFD2
:1003340002F001C002F000C001F008C000F0086A39
:10034400000E0E860264D2EF01F0F00E0214D8A45F
:10035400BAEF01F0023A01380F0B02260138F00B14
:10036400016E00380F0B01260038F00B006E0E846E
:10037400D89002BE7FEF01F00036013602360E2A15
:1003840002BE7FEF01F00036013602360E2A02BEAD
:100394007FEF01F00036013602360E2A7FEF01F0BE
:1003A40001C002F000C001F0006A000E0E960E8833
:1003B4000264FFEF01F0F00E0214D8A4EAEF01F09A
:1003C400023A01380F0B02260138F00B016E0E843D
:1003D400D89002BE7FEF01F0013602360E2A02BE2B
:1003E4007FEF01F0013602360E2A02BE7FEF01F0E4
:1003F400013602360E2A7FEF01F001C002F0016AD5
:10040400000E0E8602642FEF02F0F00E0214D8A440
:100414000EEF02F0023A0E84D89002BE7FEF01F094
:1004240002360E2A02BE7FEF01F002360E2A02BE09
:100434007FEF01F002360E2A7FEF01F0010E0C6E01
:10044400B5DE32EF02F0020E0C6EBDDE32EF02F0CA
:10045400040E0C6E09DF32EF02F0080E0C6E9FDE04
:02046400120084
:100466000B800BAE3FEF02F0026A0AAEFF0E026E81
:0C047600016E006E0A360232FF0E12000A
:0E048200ACB202D00000FCD719C1ADFF1200D1
:10049000010119BF02D08A9601D08A8619BD02D007
:1004A0008A9401D08A8419BB02D08A9201D08A82B0
:1004B00019B902D08A9001D08A800001FEB102D021
:1004C0008A8801D08A988A8ACBDE8A9A010119B774
:1004D00002D08A9601D08A8619B502D08A9401D0BA
:1004E0008A8419B302D08A9201D08A8219B102D0CB
:1004F0008A9001D08A800001FEB102D08A8801D0A2
:100500008A988A8AADDE8A9AFEA102D0A0DE01D046
:0405100099DE12005E
:10051400086A096A000E076203640FEF03F00250D1
:1005240006180A6E075003267E0ED8A0A0EF02F02C
:10053400035ED8B013EF03F0A4EF02F0035ED8A07B
:1005440017EF03F0028E068E02C00EF001C00BF00E
:1005540000C00DF000500402F4CF0CF0015005026D
:10056400F4CF00F0F3CF08F00402F3500C26F4505B
:100574000822000E00220D500502F3500C26F45000
:100584000822000E002202500402F3500826F45000
:10059400002202500502016A000E0122F3500026D7
:1005A400F45001220D500602F3500826F4500022A4
:1005B400026A000E012202220B500602F3500026AA
:1005C400F4500122000E02220E500602F3500126BE
:1005D400F450022202BEF7EF02F00836003601366C
:1005E40002360306D8B417EF03F00AEF03F0D880FD
:1005F400800E08640030000E002201220222D8A0DE
:100604000AEF03F0023201320032034A13EF03F01F
:100614000AAE029E000E19EF03F0010EC0DD19EFC1
:1006240003F0020E21DE19EF03F0040EBFDD120009
:1006340000C008F00150006E016A026A036A0B6A86
:100644000C6A016A026A036A960E036E0A6A00AEB5
:1006540032EF03F0081E001E082AD8B4002A0A8EBE
:1006640000C001F008C000F0086A026AB0DD1200A0
:080674000B6A0B86FF0E120059
:10067C00086A096A100E0C6E0134083609360450EB
:10068C00085E0550D8A0053C095ED8B007D00450D0
:10069C0008260550D8B0053C0926D89000360136FE
:0606AC000C2EEAD712003B
:0C06B2003A0E0D6E0D2EFED70000120057
:1006BE000B6A0350D8B4A5EF03F002500A6E028EF7
:1006CE008E0E035E03AEA9EF03F0036C080E035CFF
:1006DE00D8A084EF03F0036E013602C001F0026A67
:1006EE00080E035CD8A084EF03F0036E0136016A96
:1006FE000350D8A4D8908EEF03F00350D8B48EEFE9
:10070E0003F0D89002320132032E88EF03F00BBCB7
:10071E0001A09BEF03F0D8A09BEF03F0012AD8B401
:10072E00022A02BEB8EF03F00AAEBDEF03F0021EBE
:10073E00011E012AD8B4022ABDEF03F0026A016A33
:10074E00BDEF03F00B800BAEC1EF03F0026A0AAEF1
:10075E00C1EF03F0FF0E026E016E0A360232C1EFD8
:10076E0003F0010E0C6E78DEC3EF03F0000E0C6E7C
:10077E00C3EF03F0FF0E0C6E0150006E0250016EBF
:02078E00120057
:10079000025006180E6E086A096A0B6A0350076455
:1007A000BBEF04F006500A6E068E028E03500B6EED
:1007B0000750036E000E0B640BEF04F00B50075E46
:1007C000D8B4ACEF04F0070E07647AEF04F0075ECC
:1007D00000C008F001C000F002C001F0026A074E3C
:1007E000ACEF04F007644FEF04F0075E00C008F0C0
:1007F00001C000F0016A074EACEF04F007642DEF72
:1008000004F0075E00C008F0006A074EACEF04F089
:10081000076414EF04F00AC002F005C001F004C040
:1008200000F0086AD8EF05F0030E07641FEF04F02C
:10083000075E08380F0B086E074EACEF04F0D89037
:100840000832074EACEF04F0D8900832074EACEFF8
:1008500004F0D8900832ACEF04F0030E07643EEFCA
:1008600004F0075E08380F0B086E0038F00B0826FE
:1008700000380F0B006E074EACEF04F0D89000323A
:100880000832074EACEF04F0D89000320832074E21
:10089000ACEF04F0D89000320832ACEF04F0030E55
:1008A000076466EF04F0075E08380F0B086E003827
:1008B000F00B082600380F0B006E0138F00B0026F5
:1008C00001380F0B016E074EACEF04F0D8900132E7
:1008D00000320832074EACEF04F0D89001320032FB
:1008E0000832074EACEF04F0D890013200320832E3
:1008F000ACEF04F0030E076497EF04F0075E0838CE
:100900000F0B086E0038F00B082600380F0B006E36
:100910000138F00B002601380F0B016E0238F00B86
:10092000012602380F0B026E074EACEF04F0D89090
:100930000232013200320832074EACEF04F0D89098
:100940000232013200320832074EACEF04F0D89088
:100950000232013200320832096A000E0EAEA0EFF8
:1009600005F0081E001E011E021E082A0022012298
:100970000222A0EF05F00750D8A4C1EF04F0D8EF91
:1009800005F0096A02C00AF0028E068E0750035C69
:10099000076ED8B493EF05F0070E076461EF05F01A
:1009A000075E0450096E0550046E0650056E066A17
:1009B000074E93EF05F0070E076436EF05F0075E6C
:1009C0000450096E0550046E056A074E93EF05F05A
:1009D000070E076414EF05F0075E0450096E046A01
:1009E000074E93EF05F0070E0764FBEF04F00AC013
:1009F00002F0D8EF05F0030E076406EF05F0075E7E
:100A000009380F0B096E074E93EF05F0D8900932A5
:100A1000074E93EF05F0D8900932074E93EF05F09B
:100A2000D890093293EF05F0030E076425EF05F027
:100A3000075E09380F0B096E0438F00B09260438DD
:100A40000F0B046E074E93EF05F0D8900432093275
:100A5000074E93EF05F0D89004320932074E93EF1A
:100A600005F0D8900432093293EF05F0030E0764C5
:100A70004DEF05F0075E09380F0B096E0438F00BD7
:100A8000092604380F0B046E0538F00B04260538D0
:100A90000F0B056E074E93EF05F0D8900532043228
:100AA0000932074E93EF05F0D8900532043209322F
:100AB000074E93EF05F0D89005320432093293EFD8
:100AC00005F0030E07647EEF05F0075E09380F0B93
:100AD000096E0438F00B092604380F0B046E053834
:100AE000F00B042605380F0B056E0638F00B0526B3
:100AF00006380F0B066E074E93EF05F0D8900632BE
:100B0000053204320932074E93EF05F0D8900632D1
:100B1000053204320932074E93EF05F0D8900632C1
:100B2000053204320932086A000E0EAEA0EF05F05D
:100B3000091E041E051E061E092A0422052206227D
:100B400009500826045000220550012206500222B6
:100B50000EBEB7EF05F0D8A0C6EF05F002320132A5
:100B600000320832033EC6EF05F0D2EF05F0D8B0F0
:100B7000CCEF05F0000E081E001E011E021E082A02
:100B80000022012202220A7ECCEF05F0010E0C6E3B
:100B900042EC01F0DAEF05F0020E0C6E42EC01F0CF
:100BA000DAEF05F0040E0C6E36EC01F0DAEF05F02A
:060BB000000E0C6E1200A5
:100BB6000FC102F010C103F002C000F003C001F043
:100BC600024A032A00C0E9FF01C0EAFFEE5201E033
:100BD600F3D701010F51025C006E10510358016EEC
:0A0BE600010E005E000E015A12001D
:100BF0000101136B146B000E156F000E166F000EC3
:100C0000176F7F0E186F136B146B800E1419006E24
:100C1000800E1219005C02E11151135D19E20FC13F
:100C200000F010C101F006DD15C104F016C105F099
:100C300017C106F018C107F06DDC00C015F101C046
:100C400016F102C017F103C018F1134B142BDDD7B6
:100C500015C100F016C101F017C102F018C103F070
:020C6000120080
:100C62000101116B0FC1E9FF10C1EAFFEECF00F1E4
:100C72000051000A0EE000C119F102DC0101112B42
:100C820011510F25E96E000E1021EA6EEECF00F130
:040C9200EFD7120086
:100C96000001B45304E0B46BB3C000F001D0006AA5
:020CA60012003A
:100CA8000001FE9100C119F148EC02F0FE8112002A
:100CB800FF0E0001FA6FFF0EFB6FFF0EFC6FFF0EB9
:0E0CC800FD6FC26A070EC012C08EC2801200FD
:100CD60010D0800E0101016F1AD0C00E016F17D01F
:100CE600940E016F14D0D40E016F11D0800E016FD7
:100CF6000ED001010151010AECE00151020AEDE0BA
:100D06000151030AEDE00151040AEDE0EFD70205B7
:100D1600006E0151002600C001F100C019F148EC37
:100D260002F0FE91FF6BFF5101010325E96E000EF3
:100D36000421EA6EEE520DE00001FF510101032588
:100D4600E96E000E0421EA6EEECF00F1AADFFF2B5A
:080D5600EAD70001FE81120042
:100D5E00939A939893909392939493968A9A8A984F
:100D6E008A968A948A928A9027EC01F027EC01F0F9
:100D7E0027EC01F08A828A808A8A30EC01F08A9A06
:100D8E0027EC01F08A8A30EC01F08A9A27EC01F008
:100D9E008A8A30EC01F08A9A27EC01F08A908A8ACE
:100DAE0030EC01F08A9A27EC01F08A8A30EC01F0DF
:100DBE008A9A8A928A868A8A30EC01F08A9A27EC7D
:100DCE0001F08A968A808A8A30EC01F08A9A8A909B
:100DDE008A8A30EC01F08A9A27EC01F08A8A30EC8C
:100DEE0001F08A9A8A808A8A30EC01F08A9A27EC7E
:100DFE0001F08A908A8A30EC01F08A9A8A868A8477
:100E0E008A828A808A8A30EC01F08A9A27EC01F075
:060E1E000001FE8112003C
:100E24000900F5CFE6FF0006FBE10106F9E1120037
:100E3400820E0001F26F040EF36F190EF46F010EAF
:100E4400F56F8C0EF66F0E0EF76F000EF86F000E36
:100E5400F96FFF0EEA6FFF0EEB6F000EEC6F000EE2
:100E6400ED6FFF0EEE6FFF0EEF6F000EF06F000ED2
:100E7400F16FAC8A900EAB6E948E949C9EAA03D0B4
:080E8400AECF00F0FBD7120015
:100E8C00AECF01F0ABA202D0AB98AB8801C000F0A2
:020E9C00120042
:100E9E00C26A070EC012C08EFFC000F0003600906E
:100EAE00003600900050C212C28059EC03F0C2828C
:100EBE00C2A201D0FDD7C4CF01F0006AC350001208
:080ECE00000E0112C290120097
:100ED6000101076B086B01C10FF102C110F168DE59
:100EE60000C005F101C006F1036B046B800E041906
:100EF600006E800E0619005C02E10551035D54E2A6
:100F060003510125E96E04510221EA6E300EEE5CB2
:100F16000D6F0E6B000E0E5B0A0E0F6F000E106F3C
:100F2600010E055D116F000E0659126F0351115F18
:100F36000451125B5ADE00C009F101C00AF102C079
:100F46000BF103C00CF10DC100F00EC101F01AEC5B
:100F560003F009C104F00AC105F00BC106F00CC18B
:100F660007F08AEC02F000C009F101C00AF102C0E4
:100F76000BF103C00CF107C100F008C101F01AEC37
:100F860003F009C104F00AC105F00BC106F00CC15B
:100F960007F0C8EC03F05FEC03F000C007F101C0F6
:100FA60008F1034B042BA2D707C100F008C101F0DA
:020FB600120027
:100FB8000450000A12E10550000A0FE10650000A29
:100FC8000CE10750000A09E1FF0E006EFF0E016EEA
:100FD8007F0E026EFF0E036EA8D0086A096A0750DA
:100FE800D8B487EF08F00350D8B48CEF08F002505B
:100FF80006180A6E028E068E0E6A02C008F001C03C
:101008000CF000C00DF004500D5E0550D8A0053C52
:101018000C5E0650D8A0063C085E086A0C6A0D6A89
:10102800D8A01EEF08F0D890023201320032083200
:10103800010E0E6E0750035ED8A02BEF08F07E0E4F
:101048000E240326D8B091EF08F031EF08F07E0E99
:101058000E240326D8A096EF08F0180E0B6E0D3656
:101068000C3608360036013602360E360450005E5D
:101078000550D8A0053C015E0650D8A0063C025E8B
:1010880006340E120EA04CEF08F00D8057EF08F052
:10109800045000260550D8B0053C01260650D8B0AB
:1010A800062802260D900B2E33EF08F07DEF08F08E
:1010B800D8900036013602360E360450005E0550D0
:1010C800D8A0053C015E0650D8A0063C025E063456
:1010D8000E10010B0D26D8B00C2AD8B4082AD8A4B3
:1010E8007DEF08F008320C320D32032AD8B491EFA4
:1010F80008F00AAE089E0850026E0C50016E0D50A2
:10110800006E99EF08F0010E3AEC03F099EF08F041
:10111800020ED1EC00F099EF08F0040E36EC01F065
:0C11280099EF08F0080ED8EC00F012005F
:101134000001FF6B050EFF5D0CE2FF510101032569
:10114400E16E000E0421E26E200EE66E0001FF2B1C
:10115400F1D7FF5101010325E16E000E0421E26E77
:10116400E66A0001FF07FF5101010325056F000E28
:101174000421066F0A0E046E000E056E01C100F014
:1011840002C101F03EEC03F008C000F009C001F018
:10119400300E002605C1E1FF06C1E2FF00C0E6FFF4
:1011A4000A0E046E000E056E01C100F002C101F0CA
:1011B4003EEC03F000C001F101C002F1000E011881
:1011C40002E1000E001801E103D00001FF07CBD7B4
:0211D400120007
:1011D60005C101F006C102F0010E0101055F000E16
:1011E600065B000E021802E1000E01181FE001C1A5
:1011F600E9FF02C1EAFF03C1D9FF04C1DAFFEE50DD
:10120600DE180FE001C1E9FF02C1EAFF03C1D9FF01
:1012160004C1DAFFDE50EE5C006E016A000E015A70
:1012260007D0014B022B034B042BD2D7006A016A6D
:021236001200A4
:101238000050086E0150006E016A026A036A0B6A68
:101248000C6A960E036E0A6A00C001F008C000F02E
:0A125800086A026AE9EC00F01200D7
:101262003D0E01010F6F000E106FFADC150E0B6EB2
:101272004B0E0C6EBE0E0D6E0D2EFED70C2EFCD735
:101282000B2EFAD7000006DD000E000A02E1010E65
:101292000018E6E1410E01010F6F000E106FE0DC55
:1012A2000D0E196F41EC02F0150E0B6E4B0E0C6E0B
:1012B200BE0E0D6E0D2EFED70C2EFCD70B2EFAD7BE
:1012C2000000E8DC000E000A02E1020E0018E2E172
:1012D2002F0E01010F6F000E106FC2DC0D0E196F81
:1012E20041EC02F0150E0B6E4B0E0C6EBE0E0D6E27
:1012F2000D2EFED70C2EFCD70B2EFAD70000CADC1F
:10130200000E000A02E1020E0018E2E1380E0101AD
:101312000F6F000E106FA4DC0D0E196F41EC02F07E
:10132200150E0B6E4B0E0C6EBE0E0D6E0D2EFED7F5
:101332000C2EFCD70B2EFAD70000ACDC000E000AF4
:1013420002E1020E0018E2E17F0E01010F6F000EB2
:10135200106F86DC0D0E196F41EC02F0150E0B6E4C
:101362004B0E0C6EBE0E0D6E0D2EFED70C2EFCD744
:101372000B2EFAD700008EDC000E000A02E1020EEC
:101382000018E2E1840E01010F6F000E106F68DC9D
:101392000D0E196F41EC02F0150E0B6E4B0E0C6E1A
:1013A200BE0E0D6E0D2EFED70C2EFCD70B2EFAD7CD
:1013B200000070DC000E000A02E1020E0018E2E1F9
:1013C2007B0E01010F6F000E106F4ADC0D0E196FBC
:1013D20041EC02F0150E0B6E4B0E0C6EBE0E0D6E36
:1013E2000D2EFED70C2EFCD70B2EFAD7000052DCA6
:0E13F200000E000A02E1040E0018E2E11200F3
:101400000101036B046B010E196F48EC02F001013E
:1014100003510125E96E04510221EA6EEE50000AE3
:101420000DE003510125E96E04510221EA6EEECF71
:0E14300000F13ADC0101034B042BE9D7120056
:10143E000B6A0C6A0A6A0350D8B469EF0AF0028E7E
:10144E008E0E035E03BE31EF0AF0D8B431EF0AF010
:10145E006DEF0AF0036C080E035CD8A048EF0AF09B
:10146E00036E013602C001F0026A080E035CD8A0BA
:10147E0048EF0AF00136016A0350D8A4D89052EF13
:10148E000AF00350D8B452EF0AF0D890023201326B
:10149E00032E4CEF0AF00BBC01A05FEF0AF0D8A0B0
:1014AE005FEF0AF0012AD8B4022A02BE7CEF0AF0DE
:1014BE000AAE82EF0AF0021E011E012AD8B4022AD9
:1014CE0082EF0AF0026A016A82EF0AF00B800BAE1D
:1014DE0086EF0AF0026A0AAE86EF0AF0FF0E026E7F
:1014EE00016E0A36023286EF0AF0010E0C6E33ECF4
:1014FE0002F088EF0AF0000E0C6E88EF0AF0FF0E75
:0C150E000C6E0150006E0250016E1200C5
:10151A0001C102F002C103F004C100F005C101F0EB
:10152A00010E0101045F000E055B0050011009E085
:10153A0002C0E1FF03C0E2FF03C1E6FF024A032A39
:0C154A00EBD701C100F002C101F012005B
:101556005DEC0CF00F013A6B010E386F3B6B956A30
:10156600010E926E8C6A5CEC06F0010EE76FE86B7A
:10157600B46BB36B7A6BE66B010EE76FE96B9D8A12
:10158600F28CF28EAFEC06F0B886B06A440EAF6EFF
:10159600AC844DDC010E0101196F48EC02F00C0E13
:1015A6000101196F48EC02F0010E0101016F010EF5
:1015B600026F9A0E036F000E046F6BEC06F03D0E81
:1015C6000B6EE10E0C6E3F0E0D6E0D2EFED70C2E21
:1015D600FCD70B2EFAD700000000010E0101196F8F
:1015E60048EC02F0010E0101016F010E026F8C0E34
:1015F600036F000E046F6BEC06F03D0E0B6EE10EF2
:101606000C6E3F0E0D6E0D2EFED70C2EFCD70B2E3C
:10161600FAD70000000022DE4BEC06F0000E000AAE
:1016260002E1030E001801E0F7D7010E0101196F60
:1016360048EC02F0E76BF29EE96B010E0101196FAF
:1016460048EC02F0010E0101016F010E026FA80EB7
:10165600036F000E046F6BEC06F0290E0B6E960EF0
:101666000C6E7F0E0D6E0D2EFED70C2EFCD70B2E9C
:10167600FAD70D0E0101196F41EC02F0010E0101BE
:10168600196F48EC02F0010E0101016F010E026FA5
:10169600540E036F000E046F6BEC06F0020E010190
:1016A600016F010E026F5F0E036F000E046F6BEC8D
:1016B60006F00001D56BD60E0101016F000E026F18
:1016C600036B100E046F000E056F24DFF28E00010F
:1016D600E95301E1FCD7F29EE96BD60E0101016FD9
:1016E600000E026F720E036F000E046F050E056F7B
:1016F600000E066F6DDD005001100CE1010E0001B9
:10170600786F000E796FD60E0101016F000E026F21
:1017160074DE81D00101D60E016F000E026F6A0ED3
:10172600036F000E046F050E056F000E066F50DD89
:10173600005001100CE1010E0001706F000E716F78
:10174600D60E0101016F000E026F57DE64D0000154
:101756007851791134E0FF6B4FEC07F06ADD000E2B
:10176600046E000E056E480E066E840E076E8AEC39
:1017760002F0000E046EC00E056E7F0E066E880E19
:10178600076E17DC000E046E000E056E200E066E48
:10179600820E076E8AEC02F04FDE00C001F101C036
:1017A60002F1B50E0101036F000E046FC0DCB50E29
:1017B60001010F6F000E106F31EC06F02CD0000106
:1017C600705171110AE0D60E0101016F000E026F11
:1017D6006BEC07F000C08CFF1ED00001706B716BC4
:1017E600010E0101196F48EC02F0010E0101016FB3
:1017F600010E026F240E036F000E046F6BEC06F0F1
:10180600020E0101016F010E026F190E036F000E29
:0A181600046F6BEC06F04DD7FFD70E
:1018BA0010EE19F09A0E006E010E016E200EF66EF1
:0E18CA00180EF76E000EF86E12EC07F012000A
:0B182000436F6D616E646F2E2E2E0072
:0B182B00416775617264616E646F00BC
:09183600534F2C536C61766500E0
:05183F00534D2C3000A8
:041844002424240034
:10184800534E2C426C7565546F6F74682D436C69E8
:03185800636B00BF
:0B185B00416775617264616E646F008C
:0B186600436F6D616E646F2E2E2E002C
:06187100504F52544400E8
:0218770000006F
:06187900504F52544100E3
:02187F00000067
:011881000066
:041882002D2D2D00DB
:0518860053412C31006C
:08188B0053502C3132333400BC
:0E189300436F6E656374616E746F2E2E2E00AF
:0E18A10050726F6A65746F2046696E616C004C
:0B18AF00436F6E65637461646F21007D
:020000040030CA
:0D000100331F3CFFBD81FF0FC00FE00F401B
:00000001FF
