:0400000048EF03F0D2
:1000080000C016F001C015F0E1CF17F0E2CF18F0EC
:100018009EAAB9D097D900C0B3F00001C853D8B48C
:1000280097D073D0276AB351430A02E1010EC76F14
:10003800B351410A02E10B0EC76FB351450A02E101
:100048001F0EC76F84D0B3514D0A03E1020EC76F6C
:1000580007D0B3514F0A03E1160EC76F01D0C76B23
:1000680076D0B351440A05E1010E276E280EC76FFA
:1000780001D0C76B6CD0B3514F0A03E10C0EC76FA8
:1000880001D0C76B64D0B3514B0A05E1020E276E4D
:10009800280EC76F01D0C76B5AD0B3514E0A03E17F
:1000A800170EC76F01D0C76B52D0B3514E0A06E185
:1000B800030E276E010EC66F030EC96FC76B47D0BC
:1000C800B3514E0A03E1200EC76F01D0C76B3FD072
:1000D800B351440A05E1040E276E280EC76F01D0FC
:1000E800C76B35D0B3510D0A03E1290EC76F01D094
:1000F800C76B2DD0B3510A0A04E1010EC66F27C0A1
:10010800C9F0C76B24D0C76B22D0C751000A8AE058
:10011800C751010A98E0C751020AA3E0C7510B0A68
:10012800AAE0C7510C0AAFE0C751160AB6E0C7519A
:10013800170ABBE0C7511F0AC3E0C751200AC8E02D
:10014800C751280ACFE0C751290AD4E0DCD71BD011
:10015800B3510D0A0CE1B50EE16E000EE26EC55109
:10016800E126D8B0E22AE66A010EB46F0BD0B50ECC
:10017800E16E000EE26EC551E126D8B0E22AB3C0A6
:10018800E6FFC52B9E9A16C000F015C001F017C0F7
:08019800E1FF18C0E2FF1100B5
:0A01A000850E0D6E0D2EFED7120025
:1001AA003A0E0C6E230E0D6E0D2EFED70C2EFCD7BA
:0201BA00120031
:0C01BC00020E0D6E0D2EFED7000012008A
:1001C8000001E6BF02D08A9601D08A86E6BD02D039
:1001D8008A9401D08A84E6BB02D08A9201D08A82AE
:1001E800E6B902D08A9001D08A80CAB102D08A8842
:1001F80001D08A988A8ADEDF8A9AE6B702D08A9680
:1002080001D08A86E6B502D08A9401D08A84E6B302
:1002180002D08A9201D08A82E6B102D08A9001D0B7
:100228008A80CAB102D08A8801D08A988A8AC2DFB5
:0E0238008A9ACAA102D0B5DF01D0AEDF120053
:0E024600ACB202D00000FCD7E6C0ADFF120043
:10025400E1C002F0E2C003F0E4C000F0E5C001F048
:10026400010E0001E45F000EE55B0050011009E09F
:1002740002C0E1FF03C0E2FFE3C0E6FF024A032A33
:0C028400EBD7E1C000F0E2C001F0120076
:100290000001E46BE1C0E9FFE2C0EAFFEECFE3F06A
:1002A000E351000A0EE0E3C0E6F0CDDF0001E42BED
:1002B000E451E125E96E000EE221EA6EEECFE3F0B3
:0402C000EFD7120062
:0E02C4000001CA91E1C0E6F07DDFCA811200A0
:1002D2000001C65304E0C66BC9C000F001D0006A39
:0202E200120008
:1002E4000900F5CFE6FF0006FBE10106F9E1120083
:1002F400460E0001CB6F020ECC6FE60ECD6F000EE2
:10030400CE6F4C0ED76F030ED86F000ED96F000E50
:10031400DA6FFF0ED36FFF0ED46F000ED56F000E91
:10032400D66FFF0ECF6FFF0ED06F000ED16F000E91
:10033400D26FAC8A900EAB6E948E949C9EAA03D01E
:08034400AECF00F0FBD7120060
:10034C00AECF01F0ABA202D0AB98AB8801C000F0ED
:02035C0012008D
:10035E00939A939893909392939493968A9A8A9859
:10036E008A968A948A928A9019DF18DF17DF8A821A
:10037E008A808A8A1CDF8A9A11DF8A8A18DF8A9A13
:10038E000DDF8A8A14DF8A9A09DF8A908A8A0FDF44
:10039E008A9A04DF8A8A0BDF8A9A8A928A868A8AE6
:1003AE0006DF8A9AFBDE8A968A808A8A00DF8A9A1C
:1003BE008A908A8AFCDE8A9AF1DE8A8AF8DE8A9A26
:1003CE008A808A8AF4DE8A9AE9DE8A908A8AEFDE49
:1003DE008A9A8A868A848A828A808A8AE8DE8A9AB9
:0803EE00DDDE0001CA811200EE
:1003F600DFC001F0E0C002F0010E0001DF5F000E79
:10040600E05B000E021802E1000E01181FE0DBC0DF
:10041600E9FFDCC0EAFFDDC0D9FFDEC0DAFFEE503F
:10042600DE180FE0DBC0E9FFDCC0EAFFDDC0D9FF64
:10043600DEC0DAFFDE50EE5C006E016A000E015A85
:1004460007D0DB4BDC2BDD4BDE2BD2D7006A016AF3
:02045600120092
:100458000F013B6B956AFF0E8C6E0001C56BB50EE4
:10046800E16F000EE26FE36B100EE46F000EE56FB4
:10047800EDDEF28EB45301E1FDD7F29EB46B8C6AC7
:04048800ECD712009B
:10048C0010D0800E0001DB6F1AD0C00EDB6F17D0BE
:10049C00940EDB6F14D0D40EDB6F11D0800EDB6F9B
:1004AC000ED00001DB51010AECE0DB51020AEDE059
:1004BC00DB51030AEDE0DB51040AEDE0EFD7DC057C
:1004CC00006EDB51002600C0DBF000C0E6F076DEEB
:1004DC00CA91DF6BDF51DD25E96E000EDE21EA6E7D
:1004EC00EE520BE0DF51DD25E96E000EDE21EA6EE7
:0E04FC00EECFE1F0E1DEDF2BEDD7CA8112007A
:10050A00760E0001E16F000EE26FBDDE150E0B6E76
:10051A004B0E0C6EBE0E0D6E0D2EFED70C2EFCD79A
:10052A000B2EFAD70000D0DE000E000A02E1010EFF
:10053A000018E6E18D0EE16F000EE26FA4DE0D0EEB
:10054A00E66F7CDE150E0B6E4B0E0C6EBE0E0D6E3C
:10055A000D2EFED70C2EFCD70B2EFAD70000B4DED8
:10056A00000E000A02E1020E0018E4E1AA0EE16F91
:10057A00000EE26F88DE0D0EE66F60DE150E0B6E62
:10058A004B0E0C6EBE0E0D6E0D2EFED70C2EFCD72A
:10059A000B2EFAD7000098DE000E000A02E1020EC6
:1005AA000018E4E1A50EE16F000EE26F6CDE0D0E9D
:1005BA00E66F44DE150E0B6E4B0E0C6EBE0E0D6E04
:1005CA000D2EFED70C2EFCD70B2EFAD700007CDEA0
:1005DA00000E000A02E1020E0018E4E1A00EE16F2B
:1005EA00000EE26F50DE0D0EE66F28DE150E0B6E62
:1005FA004B0E0C6EBE0E0D6E0D2EFED70C2EFCD7BA
:10060A000B2EFAD7000060DE000E000A02E1020E8D
:10061A000018E4E16E0EE16F000EE26F34DE0D0E9B
:10062A00E66F0CDE150E0B6E4B0E0C6EBE0E0D6ECB
:10063A000D2EFED70C2EFCD70B2EFAD7000044DE67
:10064A00000E000A02E1020E0018E4E16A0EE16FF0
:10065A00000EE26F18DE0D0EE66FF0DD150E0B6E62
:10066A004B0E0C6EBE0E0D6E0D2EFED70C2EFCD749
:10067A000B2EFAD7000028DE000E000A02E1040E53
:06068A000018E4E112007B
:100690006EEC04F00F013A6B010E0001C86FC76BDE
:1006A000C66BC96B276AB36B010EC86FB46B9D8AAA
:1006B000F28CF28E54DEB886B06A440EAF6EAC8413
:1006C00019DE010EE66F80DD0C0EE66F7DDD010E9A
:1006D000DB6F010EDC6F190EDD6F000EDE6FD6DEF4
:1006E0003D0E0B6EE10E0C6E3F0E0D6E0D2EFED705
:1006F0000C2EFCD70B2EFAD700000000010EE66F7F
:1007000063DD010EDB6F010EDC6F280EDD6F000E66
:10071000DE6FBCDE020EDB6F010EDC6F5A0EDD6F8A
:10072000000EDE6FB3DE3D0E0B6EE10E0C6E3F0E63
:100730000D6E0D2EFED70C2EFCD70B2EFAD7000017
:100740000000E3DEC6DD000E000A02E1030E001821
:1007500001E0F8D7010EE66F37DDC86BF29EB46B8F
:10076000010EE66F31DD010EDB6F010EDC6F4F0E07
:10077000DD6F000EDE6F8ADE290E0B6E960E0C6E9C
:100780007F0E0D6E0D2EFED70C2EFCD70B2EFAD73A
:10079000340EE16F000EE26F7BDD0D0EE66F53DD70
:1007A000010E0001E66F10DD010EDB6F010EDC6F44
:1007B000800EDD6F000EDE6F69DE0001C56BB50EC9
:1007C000E16F000EE26FE36B100EE46F000EE56F59
:1007D00041DDF28EB45301E1FDD7F29EB46B010E00
:1007E000E66FF2DC800EE66FEFDCC56BB50EE96EEE
:1007F000000EEA6EC551E926D8B0EA2AEE50000A8A
:100800000DE0B50EE96E000EEA6EC551E926D8B0CE
:10081000EA2AEECFE1F056DDC52BE8D7B50EDB6F47
:10082000000EDC6F7A0EDD6F000EDE6F050EDF6FDF
:10083000000EE06FE0DD0050011001E10DDEBDD7DC
:02084000FFD7E0
:1008DC0010EE19F09A0E006E010E016E420EF66EBD
:0E08EC00080EF76E000EF86E72EC01F01200AE
:0E08420050726F6A65746F2046696E616C00BB
:0108500000A7
:0C085100436F6E6E656374696E67210072
:10085D00426C7565746F6F746820436C69636B20AF
:0B086D00436F6E6E65637465642100CC
:0B087800436F6E6E65637465642100C1
:10088300506C656173652C20776169742E2E2E0080
:040893002D2D2D00DA
:0808970053502C3132333400C0
:04089F0024242400E9
:0608A300504F52544400C6
:0D08A900526563656976696E672E2E2E001C
:1008B600534E2C426C7565546F6F74682D436C698A
:0308C600636B0061
:0508C90053412C310039
:0508CE00534D2C300029
:0908D300534F2C536C6176650053
:020000040030CA
:0D000100331F3CFFBD81FF0FC00FE00F401B
:00000001FF
