:04000000B0EF0AF063
:1000080000C016F001C015F0E1CF17F0E2CF18F0EC
:10001800F2A407D0831C8C6EF29487C0D7FF6FC000
:10002800D6FF9EAAC7D055EC07F000C004F1010125
:100038000253D8B4A4D07FD000016E6B01010451E3
:10004800430A02E1010E056F0451410A02E10B0E59
:10005800056F0451450A02E11F0E056F8FD0045148
:100068004D0A03E1020E056F07D004514F0A03E160
:10007800160E056F01D0056B81D00451440A07E1C3
:10008800010E00016E6F280E0101056F01D0056B8E
:1000980075D004514F0A03E10C0E056F01D0056BB2
:1000A8006DD004514B0A07E1020E00016E6F280E55
:1000B8000101056F01D0056B61D004514E0A03E1BF
:1000C800170E056F01D0056B59D004514E0A07E190
:1000D800030E00016E6F010EF16F030EF06F010148
:1000E800056B4CD004514E0A03E1200E056F01D078
:1000F800056B44D00451440A07E1040E00016E6FF9
:10010800280E0101056F01D0056B38D004510D0A86
:1001180003E1290E056F01D0056B30D004510A0A9E
:1001280005E1010E0001F16F6EC0F0F00101056BF1
:1001380025D0056B23D00551000AD8B47DD70551C9
:10014800010A8DE00551020A98E005510B0AA1E069
:1001580005510C0AA6E00551160AAFE00551170A29
:10016800B4E005511F0ABEE00551200AC3E005515D
:10017800280ACCE00551290AD1E0DBD71BD004516D
:100188000D0A0CE1F20EE16E000EE26E0651E12658
:10019800D8B0E22AE66A010E036F0BD0F20EE16EC8
:1001A800000EE26E0651E126D8B0E22A04C1E6FF4D
:1001B800062B9E9A16C000F015C001F017C0E1FF8B
:0601C80018C0E2FF110067
:0E01CE00026A016A006A086A036A000E1200E3
:1001DC000B840BAEF9EF00F0010E036E026A016A9C
:0A01EC00006A0A360232FF0E12000C
:0801F6000AAE029E000E120089
:1001FE000C6A0E6A0250D8A418EF01F001C002F08A
:10020E0000C001F0006A0E860250D8A418EF01F06B
:10021E0001C002F0016A0E960E880250D8B42AEF81
:10022E0001F00E50035ED8A4D8A02FEF01F0D890A5
:10023E0002BE34EF01F0003601360236032E1FEFF8
:10024E0001F02FEF01F0010E0C6EBADF37EF01F067
:10025E00020E0C6EBCDF37EF01F0040E0C6EC4DF25
:02026E0012007C
:0A027000850E0D6E0D2EFED7120054
:10027A003A0E0C6E230E0D6E0D2EFED70C2EFCD7E9
:02028A00120060
:0C028C00020E0D6E0D2EFED700001200B9
:100298000B820BAE56EF01F0036802680168006834
:0802A8000A360232FF0E1200BB
:1002B0000CB09AEF01F00CA240EF02F00E6A000EB3
:1002C0000264B1EF01F0F00E0214D8A47CEF01F04B
:1002D000023A01380F0B02260138F00B016E00388C
:1002E0000F0B01260038F00B006E08380F0B0026AC
:1002F0000838F00B086E0E84D89002BE95EF01F01E
:1003000008360036013602360E2A02BE95EF01F09D
:1003100008360036013602360E2A02BE95EF01F08D
:1003200008360036013602360E2A0E50036436EFC8
:1003300002F0035E0BBC08AE3BEF02F0D880800EEB
:1003400008640030000E002201220222D8A03BEFF8
:1003500002F0023201320032034A40EF02F03BEF7A
:1003600002F001C002F000C001F008C000F0086A0D
:10037000000E0E860264E8EF01F0F00E0214D8A41D
:10038000D0EF01F0023A01380F0B02260138F00BD2
:10039000016E00380F0B01260038F00B006E0E8442
:1003A000D89002BE95EF01F00036013602360E2AD3
:1003B00002BE95EF01F00036013602360E2A02BE6B
:1003C00095EF01F00036013602360E2A95EF01F066
:1003D00001C002F000C001F0006A000E0E960E8807
:1003E000026415EF02F0F00E0214D8A400EF02F040
:1003F000023A01380F0B02260138F00B016E0E8411
:10040000D89002BE95EF01F0013602360E2A02BEE8
:1004100095EF01F0013602360E2A02BE95EF01F08B
:10042000013602360E2A95EF01F001C002F0016A92
:10043000000E0E86026445EF02F0F00E0214D8A4FE
:1004400024EF02F0023A0E84D89002BE95EF01F03C
:1004500002360E2A02BE95EF01F002360E2A02BEC7
:1004600095EF01F002360E2A95EF01F0010E0C6EA9
:10047000B5DE48EF02F0020E0C6EBDDE48EF02F072
:10048000040E0C6E09DF48EF02F0080E0C6E9FDEC2
:02049000120058
:100492000B800BAE55EF02F0026A0AAEFF0E026E3F
:0C04A200016E006E0A360232FF0E1200DE
:0E04AE00ACB202D00000FCD734C1ADFF12008A
:1004BC00010134BF02D08A9601D08A8634BD02D0A5
:1004CC008A9401D08A8434BB02D08A9201D08A8269
:1004DC0034B902D08A9001D08A800BB102D08A88BC
:1004EC0001D08A988A8ACCDE8A9A34B702D08A964E
:1004FC0001D08A8634B502D08A9401D08A8434B370
:10050C0002D08A9201D08A8234B102D08A9001D072
:10051C008A800BB102D08A8801D08A988A8AB0DE90
:0E052C008A9A0BA102D0A3DE01D09CDE120041
:10053A00086A096A000E0762036422EF03F0025098
:10054A0006180A6E075003267E0ED8A0B3EF02F0F3
:10055A00035ED8B026EF03F0B7EF02F0035ED8A02F
:10056A002AEF03F0028E068E02C00EF001C00BF0D5
:10057A0000C00DF000500402F4CF0CF00150050247
:10058A00F4CF00F0F3CF08F00402F3500C26F45035
:10059A000822000E00220D500502F3500C26F450DA
:1005AA000822000E002202500402F3500826F450DA
:1005BA00002202500502016A000E0122F3500026B1
:1005CA00F45001220D500602F3500826F45000227E
:1005DA00026A000E012202220B500602F350002684
:1005EA00F4500122000E02220E500602F350012698
:1005FA00F450022202BE0AEF03F008360036013632
:10060A0002360306D8B42AEF03F01DEF03F0D880B0
:10061A00800E08640030000E002201220222D8A0B7
:10062A001DEF03F0023201320032034A26EF03F0D3
:10063A000AAE029E000E2CEF03F0010EC3DD2CEF72
:10064A0003F0020E24DE2CEF03F0040EC2DD1200CA
:10065A0000C008F00150006E016A026A036A0B6A60
:10066A000C6A016A026A036A960E036E0A6A00AE8F
:10067A0045EF03F0081E001E082AD8B4002A0A8E85
:10068A0000C001F008C000F0086A026AB3DD120077
:08069A000B6A0B86FF0E120033
:1006A200086A096A100E0C6E0134083609360450C5
:1006B200085E0550D8A0053C095ED8B007D00450AA
:1006C20008260550D8B0053C0926D89000360136D8
:0606D2000C2EEAD7120015
:0C06D8003A0E0D6E0D2EFED70000120031
:1006E4000B6A0350D8B4B8EF03F002500A6E028EBE
:1006F4008E0E035E03AEBCEF03F0036C080E035CC6
:10070400D8A097EF03F0036E013602C001F0026A2D
:10071400080E035CD8A097EF03F0036E0136016A5C
:100724000350D8A4D890A1EF03F00350D8B4A1EF9C
:1007340003F0D89002320132032E9BEF03F00BBC7E
:1007440001A0AEEF03F0D8A0AEEF03F0012AD8B4B5
:10075400022A02BECBEF03F00AAED0EF03F0021E72
:10076400011E012AD8B4022AD0EF03F0026A016AFA
:10077400D0EF03F00B800BAED4EF03F0026A0AAEA5
:10078400D4EF03F0FF0E026E016E0A360232D4EF8C
:1007940003F0010E0C6E7BDED6EF03F0000E0C6E40
:1007A400D6EF03F0FF0E0C6E0150006E0250016E86
:0207B400120031
:1007B600025006180E6E086A096A0B6A035007642F
:1007C600CEEF04F006500A6E068E028E03500B6EB4
:1007D6000750036E000E0B641EEF04F00B50075E0D
:1007E600D8B4BFEF04F0070E07648DEF04F0075E80
:1007F60000C008F001C000F002C001F0026A074E16
:10080600BFEF04F0076462EF04F0075E00C008F073
:1008160001C000F0016A074EBFEF04F0076440EF25
:1008260004F0075E00C008F0006A074EBFEF04F050
:10083600076427EF04F00AC002F005C001F004C007
:1008460000F0086AEBEF05F0030E076432EF04F0E0
:10085600075E08380F0B086E074EBFEF04F0D890FE
:100866000832074EBFEF04F0D8900832074EBFEFAC
:1008760004F0D8900832BFEF04F0030E076451EF7E
:1008860004F0075E08380F0B086E0038F00B0826D8
:1008960000380F0B006E074EBFEF04F0D890003201
:1008A6000832074EBFEF04F0D89000320832074EE8
:1008B600BFEF04F0D89000320832BFEF04F0030E09
:1008C600076479EF04F0075E08380F0B086E0038EE
:1008D600F00B082600380F0B006E0138F00B0026CF
:1008E60001380F0B016E074EBFEF04F0D8900132AE
:1008F60000320832074EBFEF04F0D89001320032C2
:100906000832074EBFEF04F0D890013200320832A9
:10091600BFEF04F0030E0764AAEF04F0075E083881
:100926000F0B086E0038F00B082600380F0B006E10
:100936000138F00B002601380F0B016E0238F00B60
:10094600012602380F0B026E074EBFEF04F0D89057
:100956000232013200320832074EBFEF04F0D8905F
:100966000232013200320832074EBFEF04F0D8904F
:100976000232013200320832096A000E0EAEB3EFBF
:1009860005F0081E001E011E021E082A0022012272
:100996000222B3EF05F00750D8A4D4EF04F0EBEF32
:1009A60005F0096A02C00AF0028E068E0750035C43
:1009B600076ED8B4A6EF05F0070E076474EF05F0CE
:1009C600075E0450096E0550046E0650056E066AF1
:1009D600074EA6EF05F0070E076449EF05F0075E20
:1009E6000450096E0550046E056A074EA6EF05F021
:1009F600070E076427EF05F0075E0450096E046AC8
:100A0600074EA6EF05F0070E07640EEF05F00AC0C5
:100A160002F0EBEF05F0030E076419EF05F0075E31
:100A260009380F0B096E074EA6EF05F0D89009326C
:100A3600074EA6EF05F0D8900932074EA6EF05F04F
:100A4600D8900932A6EF05F0030E076438EF05F0DB
:100A5600075E09380F0B096E0438F00B09260438B7
:100A66000F0B046E074EA6EF05F0D890043209323C
:100A7600074EA6EF05F0D89004320932074EA6EFCE
:100A860005F0D89004320932A6EF05F0030E07648C
:100A960060EF05F0075E09380F0B096E0438F00B9E
:100AA600092604380F0B046E0538F00B04260538AA
:100AB6000F0B056E074EA6EF05F0D89005320432EF
:100AC6000932074EA6EF05F0D890053204320932F6
:100AD600074EA6EF05F0D890053204320932A6EF8C
:100AE60005F0030E076491EF05F0075E09380F0B5A
:100AF600096E0438F00B092604380F0B046E05380E
:100B0600F00B042605380F0B056E0638F00B05268C
:100B160006380F0B066E074EA6EF05F0D890063284
:100B2600053204320932074EA6EF05F0D890063298
:100B3600053204320932074EA6EF05F0D890063288
:100B4600053204320932086A000E0EAEB3EF05F024
:100B5600091E041E051E061E092A04220522062257
:100B66000950082604500022055001220650022290
:100B76000EBECAEF05F0D8A0D9EF05F00232013259
:100B860000320832033ED9EF05F0E5EF05F0D8B0A4
:100B9600DFEF05F0000E081E001E011E021E082AC9
:100BA6000022012202220A7EDFEF05F0010E0C6E02
:100BB60058EC01F0EDEF05F0020E0C6E58EC01F06A
:100BC600EDEF05F0040E0C6E4CEC01F0EDEF05F0C8
:060BD600000E0C6E12007F
:100BDC002AC102F02BC103F002C000F003C001F0E7
:100BEC00024A032A00C0E9FF01C0EAFFEE5201E00D
:100BFC00F3D701012A51025C006E2B510358016E90
:0A0C0C00010E005E000E015A1200F6
:100C160001012E6B2F6B000E306F000E316F000E30
:100C2600326F7F0E336F2E6B2F6B800E2F19006E77
:100C3600800E2D19005C02E12C512E5D19E22AC1AD
:100C460000F02BC101F006DD30C104F031C105F022
:100C560032C106F033C107F06DDC00C030F101C0CF
:100C660031F102C032F103C033F12E4B2F2BDDD709
:100C760030C100F031C101F032C102F033C103F0DE
:020C860012005A
:100C880001012D6B2AC1E9FF2BC1EAFFEECF2CF140
:100C98002C51000A0EE02CC134F105DC01012D2B8A
:100CA8002D512A25E96E000E2B21EA6EEECF2CF18C
:040CB800EFD7120060
:100CBC000001F15304E0F16BF0C000F001D0006AC8
:020CCC00120014
:100CCE0001010B912AC134F15EEC02F00B8112008E
:100CDE00FF0E0101076FFF0E086FFF0E096FFF0E6B
:0E0CEE000A6FC26A070EC012C08EC2801200CA
:100CFC0010D0800E01011C6F1AD0C00E1C6F17D0C3
:100D0C00940E1C6F14D0D40E1C6F11D0800E1C6F5F
:100D1C000ED001011C51010AECE01C51020AEDE05D
:100D2C001C51030AEDE01C51040AEDE0EFD71D0540
:100D3C00006E1C51002600C01CF100C034F15EECAA
:100D4C0002F00B91206B20511E25E96E000E1F2125
:100D5C00EA6EEE520BE020511E25E96E000E1F21AB
:100D6C00EA6EEECF2AF1ADDF202BEDD70B8112000E
:100D7C00939A939893909392939493968A9A8A9831
:100D8C008A968A948A928A903DEC01F03DEC01F0AF
:100D9C003DEC01F08A828A808A8A46EC01F08A9ABC
:100DAC003DEC01F08A8A46EC01F08A9A3DEC01F0A8
:100DBC008A8A46EC01F08A9A3DEC01F08A908A8A84
:100DCC0046EC01F08A9A3DEC01F08A8A46EC01F07F
:100DDC008A9A8A928A868A8A46EC01F08A9A3DEC33
:100DEC0001F08A968A808A8A46EC01F08A9A8A9067
:100DFC008A8A46EC01F08A9A3DEC01F08A8A46EC2C
:100E0C0001F08A9A8A808A8A46EC01F08A9A3DEC33
:100E1C0001F08A908A8A46EC01F08A9A8A868A8442
:100E2C008A828A808A8A46EC01F08A9A3DEC01F02B
:060E3C0001010B81120010
:100E42000900F5CFE6FF0006FBE10106F9E1120019
:100E5200AE0E0101146F040E156F340E166F010EE3
:100E6200176FAA0E186F0E0E196F000E1A6F000E72
:100E72001B6FFF0E0C6FFF0E0D6F000E0E6F000E3C
:100E82000F6FFF0E106FFF0E116F000E126F000E2C
:100E9200136FAC8A900EAB6E948E949C9EAA03D074
:080EA200AECF00F0FBD71200F7
:100EAA00AECF01F0ABA202D0AB98AB8801C000F084
:020EBA00120024
:100EBC00C26A070EC012C08E1CC100F00036009032
:100ECC00003600900050C212C28000DCC282C2A266
:100EDC0001D0FDD7C4CF01F0006AC3500012000E40
:060EEC000112C290120089
:100EF2000101226B236B1CC12AF11DC12BF16DDE96
:100F020000C020F101C021F11E6B1F6B800E1F1962
:100F1200006E800E2119005C02E120511E5D53E239
:100F22001E511C25E96E1F511D21EA6E300EEE5C2A
:100F3200286F296B000E295B0A0E2A6F000E2B6F99
:100F4200010E205D2C6F000E21592D6F1E512C5F5A
:100F52001F512D5B5FDE00C024F101C025F102C0EC
:100F620026F103C027F128C100F029C101F02DECC0
:100F720003F024C104F025C105F026C106F027C103
:100F820007F09DEC02F000C024F101C025F102C07F
:100F920026F103C027F122C100F023C101F02DEC9C
:100FA20003F024C104F025C105F026C106F027C1D3
:100FB20007F000DC72EC03F000C022F101C023F163
:100FC2001E4B1F2BA3D722C100F023C101F0120038
:100FD2000450000A12E10550000A0FE10650000A0F
:100FE2000CE10750000A09E1FF0E006EFF0E016ED0
:100FF2007F0E026EFF0E036EA8D0086A096A0750C0
:10100200D8B494EF08F00350D8B499EF08F0025026
:1010120006180A6E028E068E0E6A02C008F001C021
:101022000CF000C00DF004500D5E0550D8A0053C38
:101032000C5E0650D8A0063C085E086A0C6A0D6A6F
:10104200D8A02BEF08F0D8900232013200320832D9
:10105200010E0E6E0750035ED8A038EF08F07E0E28
:101062000E240326D8B09EEF08F03EEF08F07E0E65
:101072000E240326D8A0A3EF08F0180E0B6E0D362F
:101082000C3608360036013602360E360450005E43
:101092000550D8A0053C015E0650D8A0063C025E71
:1010A20006340E120EA059EF08F00D8064EF08F01E
:1010B200045000260550D8B0053C01260650D8B091
:1010C200062802260D900B2E40EF08F08AEF08F05A
:1010D200D8900036013602360E360450005E0550B6
:1010E200D8A0053C015E0650D8A0063C025E06343C
:1010F2000E10010B0D26D8B00C2AD8B4082AD8A499
:101102008AEF08F008320C320D32032AD8B49EEF6F
:1011120008F00AAE089E0850026E0C50016E0D5087
:10112200006EA6EF08F0010E4DEC03F0A6EF08F0FA
:10113200020EE7EC00F0A6EF08F0040E4CEC01F012
:0C114200A6EF08F0080EEEEC00F0120022
:10114E000101206B050E205D0AE220511E25E16E85
:10115E00000E1F21E26E200EE66E202BF3D72051DB
:10116E001E25E16E000E1F21E26EE66A2007205159
:10117E001E25216F000E1F21226F0A0E046E000E17
:10118E00056E1CC100F01DC101F051EC03F008C04A
:10119E0000F009C001F0300E002621C1E1FF22C18E
:1011AE00E2FF00C0E6FF0A0E046E000E056E1CC1C3
:1011BE0000F01DC101F051EC03F000C01CF101C0A4
:1011CE001DF1000E011802E1000E001801E102D01F
:0611DE002007CDD712002E
:1011E40020C101F021C102F0010E0101205F000EB7
:1011F400215B000E021802E1000E01181FE01CC161
:10120400E9FF1DC1EAFF1EC1D9FF1FC1DAFFEE507D
:10121400DE180FE01CC1E9FF1DC1EAFF1EC1D9FFA2
:101224001FC1DAFFDE50EE5C006E016A000E015A47
:1012340007D01C4B1D2B1E4B1F2BD2D7006A016AF3
:02124400120096
:101246000050086E0150006E016A026A036A0B6A5A
:101256000C6A960E036E0A6A00C001F008C000F020
:0A126600086A026AFFEC00F01200B3
:10127000BE0E01012A6F000E2B6F06DD150E0B6EE0
:101280004B0E0C6EBE0E0D6E0D2EFED70C2EFCD727
:101290000B2EFAD7000012DD000E000A02E1010E4B
:1012A0000018E6E1DD0E01012A6F000E2B6FECDC69
:1012B0000D0E346F57EC02F0150E0B6E4B0E0C6ECC
:1012C000BE0E0D6E0D2EFED70C2EFCD70B2EFAD7B0
:1012D0000000F4DC000E000A02E1020E0018E2E158
:1012E000D40E01012A6F000E2B6FCEDC0D0E346F71
:1012F00057EC02F0150E0B6E4B0E0C6EBE0E0D6E03
:101300000D2EFED70C2EFCD70B2EFAD70000D6DC04
:10131000000E000A02E1020E0018E2E1CF0E010108
:101320002A6F000E2B6FB0DC0D0E346F57EC02F0FD
:10133000150E0B6E4B0E0C6EBE0E0D6E0D2EFED7E7
:101340000C2EFCD70B2EFAD70000B8DC000E000ADA
:1013500002E1020E0018E2E1B10E01012A6F000E57
:101360002B6F92DC0D0E346F57EC02F0150E0B6EE6
:101370004B0E0C6EBE0E0D6E0D2EFED70C2EFCD736
:101380000B2EFAD700009ADC000E000A02E1020ED2
:101390000018E2E1B60E01012A6F000E2B6F74DC1B
:1013A0000D0E346F57EC02F0150E0B6E4B0E0C6EDB
:1013B000BE0E0D6E0D2EFED70C2EFCD70B2EFAD7BF
:1013C00000007CDC000E000A02E1020E0018E2E1DF
:1013D000AD0E01012A6F000E2B6F56DC0D0E346F1F
:1013E00057EC02F0150E0B6E4B0E0C6EBE0E0D6E12
:1013F0000D2EFED70C2EFCD70B2EFAD700005EDC8C
:0E140000000E000A02E1040E0018E2E11200E4
:10140E0001011E6B1F6B010E346F5EEC02F01E515C
:10141E001C25E96E1F511D21EA6EEE50000A0CE0EC
:10142E001E511C25E96E1F511D21EA6EEECF2AF1C9
:0A143E0047DC1E4B1F2BEBD71200FA
:101448000B6A0C6A0A6A0350D8B46EEF0AF0028E6F
:101458008E0E035E03BE36EF0AF0D8B436EF0AF0FC
:1014680072EF0AF0036C080E035CD8A04DEF0AF087
:10147800036E013602C001F0026A080E035CD8A0B0
:101488004DEF0AF00136016A0350D8A4D89057EFFF
:101498000AF00350D8B457EF0AF0D890023201325C
:1014A800032E51EF0AF00BBC01A064EF0AF0D8A09C
:1014B80064EF0AF0012AD8B4022A02BE81EF0AF0CA
:1014C8000AAE87EF0AF0021E011E012AD8B4022ACA
:1014D80087EF0AF0026A016A87EF0AF00B800BAE09
:1014E8008BEF0AF0026A0AAE8BEF0AF0FF0E026E6B
:1014F800016E0A3602328BEF0AF0010E0C6E49ECCF
:1015080002F08DEF0AF0000E0C6E8DEF0AF0FF0E60
:0C1518000C6E0150006E0250016E1200BB
:101524001CC102F01DC103F01FC100F020C101F075
:10153400010E01011F5F000E205B0050011009E045
:1015440002C0E1FF03C0E2FF1EC1E6FF024A032A14
:0C155400EBD71CC100F01DC101F012001B
:10156000E4EC0CF00F013A6B010E386F3B6B956A9F
:10157000010E926E8C6A6FEC06F0040ED56E87C079
:10158000D7FF6FC0D6FFF28EF294F28A010E026F7F
:10159000056B0001F16BF06B6E6B0101046B010ECA
:1015A000026F036B9D8AF28CF28EBEEC06F0B88659
:1015B000B06A440EAF6EAC844CDC010E346F5EEC4E
:1015C00002F00C0E346F5EEC02F0010E1C6F010E87
:1015D0001D6F600E1E6F000E1F6F7EEC06F03D0E3D
:1015E0000B6EE10E0C6E3F0E0D6E0D2EFED70C2E07
:1015F000FCD70B2EFAD700000000010E346F5EEC12
:1016000002F0010E1C6F010E1D6F890E1E6F000E81
:101610001F6F7EEC06F03D0E0B6EE10E0C6E3F0E62
:101620000D6E0D2EFED70C2EFCD70B2EFAD7000018
:1016300000001EDE5EEC06F0000E000A02E1030E62
:10164000001801E0F7D7010E0101346F5EEC02F0E3
:10165000026BF29E036B010E346F5EEC02F0010E22
:101660001C6F010E1D6F970E1E6F000E1F6F7EEC1C
:1016700006F0290E0B6E960E0C6E7F0E0D6E0D2E63
:10168000FED70C2EFCD70B2EFAD7010E346F5EEC72
:1016900002F0010E1C6F010E1D6F710E1E6F000E09
:1016A0001F6F7EEC06F0020E1C6F010E1D6F7C0E8C
:1016B0001E6F000E1F6F7EEC06F00101066BF20E2E
:1016C0001C6F000E1D6F1E6B100E1F6F000E206F23
:1016D00029DFF28E035301E1FDD7F29E036BF20E78
:1016E0001C6F000E1D6F1E0E1E6F000E1F6F010E71
:1016F000206F000E216F76DD005001100BE1010E0E
:10170000296E000E2A6EF20E01011C6F000E1D6F75
:101710007EDEECD00101F20E1C6F000E1D6F190E63
:101720001E6F000E1F6F010E206F000E216F5ADD1D
:10173000005001100CE18C6A010E2B6E000E2C6E15
:10174000F20E01011C6F000E1D6F61DECFD0010192
:10175000F20E1C6F000E1D6F4E0E1E6F000E1F6FDF
:10176000010E206F000E216F3DDD005001100DE1D4
:10177000010E546E000E556E840ED56EF20E0101F0
:101780001C6F000E1D6F43DEB1D00101F20E1C6F05
:10179000000E1D6F560E1E6F000E1F6F070E206F7E
:1017A000000E216F1FDD005001101DE12B6A2C6A15
:1017B0008C6A010E0101346F5EEC02F0010E1C6FA9
:1017C000010E1D6F2D0E1E6F000E1F6F7EEC06F0BA
:1017D000020E1C6F010E1D6F380E1E6F000E1F6F64
:1017E0007EEC06F083D00101F20E1C6F000E1D6F1F
:1017F000430E1E6F000E1F6F070E206F000E216F2D
:10180000F1DC005001101CE1296A2A6A010E010175
:10181000346F5EEC02F0010E1C6F010E1D6FA20E04
:101820001E6F000E1F6F7EEC06F0020E1C6F010E85
:101830001D6FC40E1E6F000E1F6F7EEC06F056D09B
:1018400029502A1038E001011C6B5EEC07F0FBDC2C
:10185000000E046E000E056E040E066E840E076EFA
:101860009DEC02F0000E046EC00E056E7F0E066E3B
:10187000880E076EE9EC07F0000E046E000E056E90
:10188000200E066E820E076E9DEC02F0DDDD00C0BC
:101890001CF101C01DF1C2C01EF1C3C01FF157DC15
:1018A000C2C02AF1C3C02BF144EC06F00D0E346F18
:1018B00057EC02F01BD02B502C100AE0F20E010165
:1018C0001C6F000E1D6F79EC07F000C08CFF0ED06E
:1018D000545055100BE00101F20E1C6F000E1D6FED
:1018E00079EC07F000C087F001C088F0E6D6FFD79A
:1019C80010EE19F0D70E006E010E016EF00EF66ED5
:0E19D800180EF76E000EF86E21EC07F01200EC
:0518F0004C45445300CB
:0B18F500564F4C54494D4554524F00D3
:021900000000E5
:021902000000E3
:0B190400416775617264616E646F00E2
:0B190F00436F6D616E646F2E2E2E0082
:0B191A0066696E697368564F4C5400FC
:0619250054494D4552003B
:02192B000000BA
:0A192D0066696E6973684C4544005A
:0E19370050726F6A65746F2046696E616C00B5
:0119450000A1
:02194600FF00A0
:0B194800416775617264616E646F009E
:0B195300436F6D616E646F2E2E2E003E
:02195E00000087
:0E196000436F6E656374616E746F2E2E2E00E1
:0B196E00436F6E65637461646F2100BD
:0B197900416775617264616E646F006D
:041984002D2D2D00D8
:0519880053412C310069
:08198D0053502C3132333400B9
:0419950024242400E2
:0219990000004C
:0B199B00436F6D616E646F2E2E2E00F6
:0519A600534D2C300040
:0919AB00534F2C536C617665006A
:1019B400534E2C426C7565546F6F74682D436C697B
:0319C400636B0052
:020000040030CA
:0D000100331F3CFFBD81FF0FC00FE00F401B
:00000001FF
