:040000009DEF0AF076
:1000080000C016F001C015F0E1CF17F0E2CF18F0EC
:10001800F2A407D0831C8C6EF29456C0D7FF58C048
:10002800D6FF9EAABAD048EC07F000C023F1010120
:100038002253D8B497D073D0556A2351430A02E1AA
:10004800010E216F2351410A02E10B0E216F23514A
:10005800450A02E11F0E216F84D023514D0A03E1A6
:10006800020E216F07D023514F0A03E1160E216FAC
:1000780001D0216B76D02351440A05E1010E556E5B
:10008800280E216F01D0216B6CD023514F0A03E158
:100098000C0E216F01D0216B64D023514B0A05E16E
:1000A800020E556E280E216F01D0216B5AD02351B4
:1000B8004E0A03E1170E216F01D0216B52D0235154
:1000C8004E0A06E1030E556E010E406F030E416F96
:1000D800216B47D023514E0A03E1200E216F01D036
:1000E800216B3FD02351440A05E1040E556E280EBA
:1000F800216F01D0216B35D023510D0A03E1290E60
:10010800216F01D0216B2DD023510A0A04E1010E81
:10011800406F55C041F1216B24D0216B22D0215171
:10012800000A8AE02151010A98E02151020AA3E05D
:1001380021510B0AAAE021510C0AAFE02151160AFD
:10014800B6E02151170ABBE021511F0AC3E0215133
:10015800200AC8E02151280ACFE02151290AD4E019
:10016800DCD71BD023510D0A0CE1100EE16E010EF5
:10017800E26E2051E126D8B0E22AE66A010E246F29
:100188000BD0100EE16E010EE26E2051E126D8B0C0
:10019800E22A23C1E6FF202B9E9A16C000F015C064
:0C01A80001F017C0E1FF18C0E2FF1100D9
:0E01B400026A016A006A086A036A000E1200FD
:1001C2000B840BAEECEF00F0010E036E026A016AC3
:0A01D200006A0A360232FF0E120026
:0801DC000AAE029E000E1200A3
:1001E4000C6A0E6A0250D8A40BEF01F001C002F0B1
:1001F40000C001F0006A0E860250D8A40BEF01F093
:1002040001C002F0016A0E960E880250D8B41DEFA8
:1002140001F00E50035ED8A4D8A022EF01F0D890CC
:1002240002BE27EF01F0003601360236032E12EF2C
:1002340001F022EF01F0010E0C6EBADF2AEF01F09B
:10024400020E0C6EBCDF2AEF01F0040E0C6EC4DF4C
:02025400120096
:0A025600850E0D6E0D2EFED712006E
:100260003A0E0C6E230E0D6E0D2EFED70C2EFCD703
:0202700012007A
:0C027200020E0D6E0D2EFED700001200D3
:10027E000B820BAE49EF01F003680268016800685B
:08028E000A360232FF0E1200D5
:100296000CB08DEF01F00CA233EF02F00E6A000EE7
:1002A6000264A4EF01F0F00E0214D8A46FEF01F07F
:1002B600023A01380F0B02260138F00B016E0038A6
:1002C6000F0B01260038F00B006E08380F0B0026C6
:1002D6000838F00B086E0E84D89002BE88EF01F045
:1002E60008360036013602360E2A02BE88EF01F0C5
:1002F60008360036013602360E2A02BE88EF01F0B5
:1003060008360036013602360E2A0E50036429EFEF
:1003160002F0035E0BBC08AE2EEF02F0D880800E12
:1003260008640030000E002201220222D8A02EEF1F
:1003360002F0023201320032034A33EF02F02EEFAE
:1003460002F001C002F000C001F008C000F0086A27
:10035600000E0E860264DBEF01F0F00E0214D8A444
:10036600C3EF01F0023A01380F0B02260138F00BF9
:10037600016E00380F0B01260038F00B006E0E845C
:10038600D89002BE88EF01F00036013602360E2AFA
:1003960002BE88EF01F00036013602360E2A02BE92
:1003A60088EF01F00036013602360E2A88EF01F09A
:1003B60001C002F000C001F0006A000E0E960E8821
:1003C600026408EF02F0F00E0214D8A4F3EF01F075
:1003D600023A01380F0B02260138F00B016E0E842B
:1003E600D89002BE88EF01F0013602360E2A02BE10
:1003F60088EF01F0013602360E2A02BE88EF01F0C0
:10040600013602360E2A88EF01F001C002F0016AB9
:10041600000E0E86026438EF02F0F00E0214D8A425
:1004260017EF02F0023A0E84D89002BE88EF01F070
:1004360002360E2A02BE88EF01F002360E2A02BEEE
:1004460088EF01F002360E2A88EF01F0010E0C6EDD
:10045600B5DE3BEF02F0020E0C6EBDDE3BEF02F0A6
:10046600040E0C6E09DF3BEF02F0080E0C6E9FDEE9
:02047600120072
:100478000B800BAE48EF02F0026A0AAEFF0E026E66
:0C048800016E006E0A360232FF0E1200F8
:0E049400ACB202D00000FCD75AC1ADFF12007E
:1004A20001015ABF02D08A9601D08A865ABD02D073
:1004B2008A9401D08A845ABB02D08A9201D08A825D
:1004C2005AB902D08A9001D08A8035B102D08A8886
:1004D20001D08A988A8ACCDE8A9A5AB702D08A9642
:1004E20001D08A865AB502D08A9401D08A845AB33E
:1004F20002D08A9201D08A825AB102D08A9001D067
:100502008A8035B102D08A8801D08A988A8AB0DE80
:0E0512008A9A35A102D0A3DE01D09CDE120031
:10052000086A096A000E0762036415EF03F00250BF
:1005300006180A6E075003267E0ED8A0A6EF02F01A
:10054000035ED8B019EF03F0AAEF02F0035ED8A063
:100550001DEF03F0028E068E02C00EF001C00BF0FC
:1005600000C00DF000500402F4CF0CF00150050261
:10057000F4CF00F0F3CF08F00402F3500C26F4504F
:100580000822000E00220D500502F3500C26F450F4
:100590000822000E002202500402F3500826F450F4
:1005A000002202500502016A000E0122F3500026CB
:1005B000F45001220D500602F3500826F450002298
:1005C000026A000E012202220B500602F35000269E
:1005D000F4500122000E02220E500602F3500126B2
:1005E000F450022202BEFDEF02F00836003601365A
:1005F00002360306D8B41DEF03F010EF03F0D880E5
:10060000800E08640030000E002201220222D8A0D1
:1006100010EF03F0023201320032034A19EF03F007
:100620000AAE029E000E1FEF03F0010EC3DD1FEFA6
:1006300003F0020E24DE1FEF03F0040EC2DD1200F1
:1006400000C008F00150006E016A026A036A0B6A7A
:100650000C6A016A026A036A960E036E0A6A00AEA9
:1006600038EF03F0081E001E082AD8B4002A0A8EAC
:1006700000C001F008C000F0086A026AB3DD120091
:080680000B6A0B86FF0E12004D
:10068800086A096A100E0C6E0134083609360450DF
:10069800085E0550D8A0053C095ED8B007D00450C4
:1006A80008260550D8B0053C0926D89000360136F2
:0606B8000C2EEAD712002F
:0C06BE003A0E0D6E0D2EFED7000012004B
:1006CA000B6A0350D8B4ABEF03F002500A6E028EE5
:1006DA008E0E035E03AEAFEF03F0036C080E035CED
:1006EA00D8A08AEF03F0036E013602C001F0026A55
:1006FA00080E035CD8A08AEF03F0036E0136016A84
:10070A000350D8A4D89094EF03F00350D8B494EFD0
:10071A0003F0D89002320132032E8EEF03F00BBCA5
:10072A0001A0A1EF03F0D8A0A1EF03F0012AD8B4E9
:10073A00022A02BEBEEF03F00AAEC3EF03F0021EA6
:10074A00011E012AD8B4022AC3EF03F0026A016A21
:10075A00C3EF03F00B800BAEC7EF03F0026A0AAED9
:10076A00C7EF03F0FF0E026E016E0A360232C7EFC0
:10077A0003F0010E0C6E7BDEC9EF03F0000E0C6E67
:10078A00C9EF03F0FF0E0C6E0150006E0250016EAD
:02079A0012004B
:10079C00025006180E6E086A096A0B6A0350076449
:1007AC00C1EF04F006500A6E068E028E03500B6EDB
:1007BC000750036E000E0B6411EF04F00B50075E34
:1007CC00D8B4B2EF04F0070E076480EF04F0075EB4
:1007DC0000C008F001C000F002C001F0026A074E30
:1007EC00B2EF04F0076455EF04F0075E00C008F0A8
:1007FC0001C000F0016A074EB2EF04F0076433EF5A
:10080C0004F0075E00C008F0006A074EB2EF04F077
:10081C0007641AEF04F00AC002F005C001F004C02E
:10082C0000F0086ADEEF05F0030E076425EF04F014
:10083C00075E08380F0B086E074EB2EF04F0D89025
:10084C000832074EB2EF04F0D8900832074EB2EFE0
:10085C0004F0D8900832B2EF04F0030E076444EFB2
:10086C0004F0075E08380F0B086E0038F00B0826F2
:10087C0000380F0B006E074EB2EF04F0D890003228
:10088C000832074EB2EF04F0D89000320832074E0F
:10089C00B2EF04F0D89000320832B2EF04F0030E3D
:1008AC0007646CEF04F0075E08380F0B086E003815
:1008BC00F00B082600380F0B006E0138F00B0026E9
:1008CC0001380F0B016E074EB2EF04F0D8900132D5
:1008DC0000320832074EB2EF04F0D89001320032E9
:1008EC000832074EB2EF04F0D890013200320832D1
:1008FC00B2EF04F0030E07649DEF04F0075E0838B6
:10090C000F0B086E0038F00B082600380F0B006E2A
:10091C000138F00B002601380F0B016E0238F00B7A
:10092C00012602380F0B026E074EB2EF04F0D8907E
:10093C000232013200320832074EB2EF04F0D89086
:10094C000232013200320832074EB2EF04F0D89076
:10095C000232013200320832096A000E0EAEA6EFE6
:10096C0005F0081E001E011E021E082A002201228C
:10097C000222A6EF05F00750D8A4C7EF04F0DEEF73
:10098C0005F0096A02C00AF0028E068E0750035C5D
:10099C00076ED8B499EF05F0070E076467EF05F002
:1009AC00075E0450096E0550046E0650056E066A0B
:1009BC00074E99EF05F0070E07643CEF05F0075E54
:1009CC000450096E0550046E056A074E99EF05F048
:1009DC00070E07641AEF05F0075E0450096E046AEF
:1009EC00074E99EF05F0070E076401EF05F00AC0FA
:1009FC0002F0DEEF05F0030E07640CEF05F0075E66
:100A0C0009380F0B096E074E99EF05F0D890093293
:100A1C00074E99EF05F0D8900932074E99EF05F083
:100A2C00D890093299EF05F0030E07642BEF05F00F
:100A3C00075E09380F0B096E0438F00B09260438D1
:100A4C000F0B046E074E99EF05F0D8900432093263
:100A5C00074E99EF05F0D89004320932074E99EF02
:100A6C0005F0D8900432093299EF05F0030E0764B3
:100A7C0053EF05F0075E09380F0B096E0438F00BC5
:100A8C00092604380F0B046E0538F00B04260538C4
:100A9C000F0B056E074E99EF05F0D8900532043216
:100AAC000932074E99EF05F0D8900532043209321D
:100ABC00074E99EF05F0D89005320432093299EFC0
:100ACC0005F0030E076484EF05F0075E09380F0B81
:100ADC00096E0438F00B092604380F0B046E053828
:100AEC00F00B042605380F0B056E0638F00B0526A7
:100AFC0006380F0B066E074E99EF05F0D8900632AC
:100B0C00053204320932074E99EF05F0D8900632BF
:100B1C00053204320932074E99EF05F0D8900632AF
:100B2C00053204320932086A000E0EAEA6EF05F04B
:100B3C00091E041E051E061E092A04220522062271
:100B4C0009500826045000220550012206500222AA
:100B5C000EBEBDEF05F0D8A0CCEF05F0023201328D
:100B6C0000320832033ECCEF05F0D8EF05F0D8B0D8
:100B7C00D2EF05F0000E081E001E011E021E082AF0
:100B8C000022012202220A7ED2EF05F0010E0C6E29
:100B9C004BEC01F0E0EF05F0020E0C6E4BEC01F0AB
:100BAC00E0EF05F0040E0C6E3FEC01F0E0EF05F009
:060BBC00000E0C6E120099
:100BC20050C102F051C103F002C000F003C001F0B5
:100BD200024A032A00C0E9FF01C0EAFFEE5201E027
:100BE200F3D701015051025C006E51510358016E5E
:0A0BF200010E005E000E015A120011
:100BFC000101546B556B000E566F000E576F000EB3
:100C0C00586F7F0E596F546B556B800E5519006ED3
:100C1C00800E5319005C02E15251545D19E250C12F
:100C2C0000F051C101F006DD56C104F057C105F0CA
:100C3C0058C106F059C107F06DDC00C056F101C077
:100C4C0057F102C058F103C059F1544B552BDDD765
:100C5C0056C100F057C101F058C102F059C103F060
:020C6C00120074
:100C6E000101536B50C1E9FF51C1EAFFEECF52F1C2
:100C7E005251000A0EE052C15AF105DC0101532B0C
:100C8E0053515025E96E000E5121EA6EEECF52F10E
:040C9E00EFD712007A
:100CA2000101405304E0406B41C100F001D0006AF1
:020CB20012002E
:100CB4000101359150C15AF151EC02F03581120015
:100CC400FF0E0101256FFF0E266FFF0E276FFF0E2B
:0E0CD400286FC26A070EC012C08EC2801200C6
:100CE20010D0800E0101426F1AD0C00E426F17D091
:100CF200940E426F14D0D40E426F11D0800E426F08
:100D02000ED001014251010AECE04251020AEDE02B
:100D12004251030AEDE04251040AEDE0EFD74305E8
:100D2200006E4251002600C042F100C05AF151EC5F
:100D320002F03591466B46514425E96E000E45217D
:100D4200EA6EEE520BE046514425E96E000E452153
:100D5200EA6EEECF50F1ADDF462BEDD735811200B2
:100D6200939A939893909392939493968A9A8A984B
:100D72008A968A948A928A9030EC01F030EC01F0E3
:100D820030EC01F08A828A808A8A39EC01F08A9AF0
:100D920030EC01F08A8A39EC01F08A9A30EC01F0E9
:100DA2008A8A39EC01F08A9A30EC01F08A908A8AB8
:100DB20039EC01F08A9A30EC01F08A8A39EC01F0C0
:100DC2008A9A8A928A868A8A39EC01F08A9A30EC67
:100DD20001F08A968A808A8A39EC01F08A9A8A908E
:100DE2008A8A39EC01F08A9A30EC01F08A8A39EC6D
:100DF20001F08A9A8A808A8A39EC01F08A9A30EC68
:100E020001F08A908A8A39EC01F08A9A8A868A8469
:100E12008A828A808A8A39EC01F08A9A30EC01F05F
:060E220001013581120000
:100E28000900F5CFE6FF0006FBE10106F9E1120033
:100E3800940E0101366F040E376F5A0E386F010E8B
:100E4800396F900E316F0E0E326F000E336F000E39
:100E5800346FFF0E296FFF0E2A6F000E2B6F000EE6
:100E68002C6FFF0E2D6FFF0E2E6F000E2F6F000ED2
:100E7800306FAC8A900EAB6E948E949C9EAA03D071
:080E8800AECF00F0FBD7120011
:100E9000AECF01F0ABA202D0AB98AB8801C000F09E
:020EA00012003E
:100EA200C26A070EC012C08E42C100F00036009026
:100EB200003600900050C212C28000DCC282C2A280
:100EC20001D0FDD7C4CF01F0006AC3500012000E5A
:060ED2000112C2901200A3
:100ED8000101486B496B42C150F143C151F16DDECC
:100EE80000C046F101C047F1446B456B800E4519BF
:100EF800006E800E4719005C02E14651445D53E2E2
:100F080044514225E96E45514321EA6E300EEE5CAC
:100F18004E6F4F6B000E4F5B0A0E506F000E516FF5
:100F2800010E465D526F000E4759536F4451525F90
:100F38004551535B5FDE00C04AF101C04BF102C06E
:100F48004CF103C04DF14EC100F04FC101F020EC4F
:100F580003F04AC104F04BC105F04CC106F04DC185
:100F680007F090EC02F000C04AF101C04BF102C05A
:100F78004CF103C04DF148C100F049C101F020EC2B
:100F880003F04AC104F04BC105F04CC106F04DC155
:100F980007F000DC65EC03F000C048F101C049F13E
:100FA800444B452BA3D748C100F049C101F01200BA
:100FB8000450000A12E10550000A0FE10650000A29
:100FC8000CE10750000A09E1FF0E006EFF0E016EEA
:100FD8007F0E026EFF0E036EA8D0086A096A0750DA
:100FE800D8B487EF08F00350D8B48CEF08F002505B
:100FF80006180A6E028E068E0E6A02C008F001C03C
:101008000CF000C00DF004500D5E0550D8A0053C52
:101018000C5E0650D8A0063C085E086A0C6A0D6A89
:10102800D8A01EEF08F0D890023201320032083200
:10103800010E0E6E0750035ED8A02BEF08F07E0E4F
:101048000E240326D8B091EF08F031EF08F07E0E99
:101058000E240326D8A096EF08F0180E0B6E0D3656
:101068000C3608360036013602360E360450005E5D
:101078000550D8A0053C015E0650D8A0063C025E8B
:1010880006340E120EA04CEF08F00D8057EF08F052
:10109800045000260550D8B0053C01260650D8B0AB
:1010A800062802260D900B2E33EF08F07DEF08F08E
:1010B800D8900036013602360E360450005E0550D0
:1010C800D8A0053C015E0650D8A0063C025E063456
:1010D8000E10010B0D26D8B00C2AD8B4082AD8A4B3
:1010E8007DEF08F008320C320D32032AD8B491EFA4
:1010F80008F00AAE089E0850026E0C50016E0D50A2
:10110800006E99EF08F0010E40EC03F099EF08F03B
:10111800020EDAEC00F099EF08F0040E3FEC01F053
:0C11280099EF08F0080EE1EC00F0120056
:101134000101466B050E465D0AE246514425E16E07
:10114400000E4521E26E200EE66E462BF3D7465183
:101154004425E16E000E4521E26EE66A46074651DB
:101164004425476F000E4521486F0A0E046E000E99
:10117400056E42C100F043C101F044EC03F008C025
:1011840000F009C001F0300E002647C1E1FF48C15C
:10119400E2FF00C0E6FF0A0E046E000E056E42C1B7
:1011A40000F043C101F044EC03F000C042F101C07F
:1011B40043F1000E011802E1000E001801E102D013
:0611C4004607CDD7120022
:1011CA0046C101F047C102F0010E0101465F000E5F
:1011DA00475B000E021802E1000E01181FE042C12F
:1011EA00E9FF43C1EAFF44C1D9FF45C1DAFFEE5026
:1011FA00DE180FE042C1E9FF43C1EAFF44C1D9FF4B
:10120A0045C1DAFFDE50EE5C006E016A000E015A3B
:10121A0007D0424B432B444B452BD2D7006A016A75
:02122A001200B0
:10122C000050086E0150006E016A026A036A0B6A74
:10123C000C6A960E036E0A6A00C001F008C000F03A
:0A124C00086A026AF2EC00F01200DA
:10125600E30E0101506F000E516F06DD150E0B6E89
:101266004B0E0C6EBE0E0D6E0D2EFED70C2EFCD741
:101276000B2EFAD7000012DD000E000A02E1010E65
:101286000018E6E1E70E506F000E516FEDDC0D0E13
:101296005A6F4AEC02F0150E0B6E4B0E0C6EBE0E1C
:1012A6000D6E0D2EFED70C2EFCD70B2EFAD7000096
:1012B600F5DC000E000A02E1020E0018E3E1A20EC0
:1012C600506F000E516FD0DC0D0E5A6F4AEC02F0D3
:1012D600150E0B6E4B0E0C6EBE0E0D6E0D2EFED742
:1012E6000C2EFCD70B2EFAD70000D8DC000E000A15
:1012F60002E1020E0018E3E1980E506F000E516FE6
:10130600B3DC0D0E5A6F4AEC02F0150E0B6E4B0E47
:101316000C6EBE0E0D6E0D2EFED70C2EFCD70B2EB0
:10132600FAD70000BBDC000E000A02E1020E00182C
:10133600E3E19D0E506F000E516F96DC0D0E5A6F55
:101346004AEC02F0150E0B6E4B0E0C6EBE0E0D6EB9
:101356000D2EFED70C2EFCD70B2EFAD700009EDCE6
:10136600000E000A02E1020E0018E3E1900E506F33
:10137600000E516F79DC0D0E5A6F4AEC02F0150E15
:101386000B6E4B0E0C6EBE0E0D6E0D2EFED70C2E7A
:10139600FCD70B2EFAD7000081DC000E000A02E112
:1013A600020E0018E3E18C0E506F000E516F5CDCEC
:1013B6000D0E5A6F4AEC02F0150E0B6E4B0E0C6EAC
:1013C600BE0E0D6E0D2EFED70C2EFCD70B2EFAD7A9
:1013D600000064DC000E000A02E1040E0018E3E1DE
:0213E6001200F3
:1013E8000101446B456B010E5A6F51EC02F04451F8
:1013F8004225E96E45514321EA6EEE50000A0CE0A1
:1014080044514225E96E45514321EA6EEECF50F131
:0A1418004DDC444B452BEBD71200CE
:101422000B6A0C6A0A6A0350D8B45BEF0AF0028EA8
:101432008E0E035E03BE23EF0AF0D8B423EF0AF048
:101442005FEF0AF0036C080E035CD8A03AEF0AF0D3
:10145200036E013602C001F0026A080E035CD8A0D6
:101462003AEF0AF00136016A0350D8A4D89044EF4B
:101472000AF00350D8B444EF0AF0D8900232013295
:10148200032E3EEF0AF00BBC01A051EF0AF0D8A0E8
:1014920051EF0AF0012AD8B4022A02BE6EEF0AF016
:1014A2000AAE74EF0AF0021E011E012AD8B4022A03
:1014B20074EF0AF0026A016A74EF0AF00B800BAE55
:1014C20078EF0AF0026A0AAE78EF0AF0FF0E026EB7
:1014D200016E0A36023278EF0AF0010E0C6E3CEC15
:1014E20002F07AEF0AF0000E0C6E7AEF0AF0FF0EAD
:0C14F2000C6E0150006E0250016E1200E2
:1014FE0042C102F043C103F045C100F046C101F004
:10150E00010E0101455F000E465B0050011009E01F
:10151E0002C0E1FF03C0E2FF44C1E6FF024A032A14
:0C152E00EBD742C100F043C101F01200F5
:10153A000CEC0DF00F013A6B010E386F3B6B956A9C
:10154A00010E926E8C6A62EC06F0470ED56E56C09A
:10155A00D7FF58C0D6FFF28EF294F28A010E226F9C
:10156A00216B406B416B556A236B010E226F246B12
:10157A009D8AF28CF28EB1EC06F0B886B06A440EFF
:10158A00AF6EAC8454DC010E5A6F51EC02F00C0EB3
:10159A005A6F51EC02F0010E426F010E436F730E47
:1015AA00446F000E456F71EC06F03D0E0B6EE10EB6
:1015BA000C6E3F0E0D6E0D2EFED70C2EFCD70B2E89
:1015CA00FAD700000000010E5A6F51EC02F0010E2A
:1015DA00426F010E436F5A0E446F000E456F71EC55
:1015EA0006F03D0E0B6EE10E0C6E3F0E0D6E0D2ECB
:1015FA00FED70C2EFCD70B2EFAD70000000026DEF1
:10160A0051EC06F0000E000A02E1030E001801E098
:10161A00F7D7010E5A6F51EC02F0226BF29E246B3F
:10162A00010E5A6F51EC02F0010E426F010E436F28
:10163A00680E446F000E456F71EC06F0290E0B6EB2
:10164A00960E0C6E7F0E0D6E0D2EFED70C2EFCD74D
:10165A000B2EFAD7010E5A6F51EC02F0010E426FAF
:10166A00010E436F4A0E446F000E456F71EC06F08F
:10167A00020E426F010E436F260E446F000E456F35
:10168A0071EC06F00101206B100E426F010E436FE0
:10169A00446B100E456F000E466F2CDFF28E2453FA
:1016AA0001E1FDD7F29E246B100E426F010E436FCB
:1016BA00190E446F000E456F010E466F000E476FFC
:1016CA007FDD005001100BE1010E246E000E256E25
:1016DA00100E0101426F010E436F81DE1AD1010122
:1016EA00100E426F010E436F430E446F000E456F9A
:1016FA00010E466F000E476F63DD005001100CE1CA
:10170A008C6A010E486E000E496E100E0101426F7E
:10171A00010E436F64DEFDD00101100E426F010E0F
:10172A00436F3D0E446F000E456F010E466F000E6B
:10173A00476F46DD005001100DE1010E316E000EBB
:10174A00326EC70ED56E100E0101426F010E436F45
:10175A0046DEDFD00101100E426F010E436F330ED9
:10176A00446F000E456F070E466F000E476F28DD67
:10177A00005001101DE1486A496A8C6A010E010194
:10178A005A6F51EC02F0010E426F010E436F810E47
:10179A00446F000E456F71EC06F0020E426F010EA7
:1017AA00436FCD0E446F000E456F71EC06F0B1D059
:1017BA000101100E426F010E436FD80E446F000EE6
:1017CA00456F070E466F000E476FFADC0050011096
:1017DA001CE1246A256A010E01015A6F51EC02F0DC
:1017EA00010E426F010E436FC20E446F000E456F29
:1017FA0071EC06F0020E426F010E436FAB0E446F9E
:10180A00000E456F71EC06F084D00101100E426F94
:10181A00010E436FB60E446F000E456F070E466FFA
:10182A00000E476FCDDC005001101CE1470ED56E4B
:10183A00010E01015A6F51EC02F0010E426F010EC6
:10184A00436FFA0E446F000E456F71EC06F0020EFC
:10185A00426F010E436F050E446F010E456F71EC26
:10186A0006F057D02450251039E00101426B51ECA3
:10187A0007F0D7DC000E046E000E056E040E066E2D
:10188A00840E076E90EC02F0000E046EC00E056E18
:10189A007F0E066E880E076EDCEC07F0000E046EF3
:1018AA00000E056E200E066E820E076E90EC02F098
:1018BA00B3DD00C042F101C043F13A0E0101446FA9
:1018CA00010E456F32DC3A0E506F010E516F37EC44
:1018DA0006F00D0E5A6F4AEC02F01BD04850491020
:1018EA000AE0100E0101426F010E436F6CEC07F023
:1018FA0000C08CFF0ED0315032100BE00101100EE7
:10190A00426F010E436F6CEC07F000C058F001C043
:06191A0059F0B8D6FFD71A
:101A180010EE19F0F70E006E010E016E200EF66E34
:0E1A2800190EF76E000EF86E14EC07F01200A7
:0B192000564F4C54494D4554524F00A7
:02192B000000BA
:0B192D00436F6D616E646F2E2E2E0064
:021938000000AD
:0A193A0066696E6973684C4544004D
:0619440054494D4552001C
:05194A004C4544530070
:02194F00000096
:0B195100416775617264616E646F0095
:01195C00008A
:02195D00000088
:02195F00000086
:0E196100436F6E656374616E746F2E2E2E00E0
:0B196F00436F6E65637461646F2100BC
:0E197A0050726F6A65746F2046696E616C0072
:0B198800416775617264616E646F005E
:041993002D2D2D00C9
:0819970053502C3132333400AF
:05199F00534D2C300047
:0519A40053412C31004D
:0919A900534F2C536C617665006C
:0B19B200436F6D616E646F2E2E2E00DF
:0C19BD0066696E69736854494D4552001C
:0B19C900416775617264616E646F001D
:0B19D400436F6D616E646F2E2E2E00BD
:0B19DF0066696E697368564F4C540037
:0419EA00242424008D
:1019EE00534E2C426C7565546F6F74682D436C6941
:0319FE00636B0018
:0B1A0100416775617264616E646F00E4
:0B1A0C00436F6D616E646F2E2E2E0084
:020000040030CA
:0D000100331F3CFFBD81FF0FC00FE00F401B
:00000001FF
