:10000000FAEF02F0FFFFFFFF00C016F001C015F08D
:10001000E1CF17F0E2CF18F09EAAB9D09FD900C067
:10002000C8F00001D053D8B497D073D05E6AC851DD
:10003000430A02E1010ECF6FC851410A02E10B0EE3
:10004000CF6FC851450A02E11F0ECF6F84D0C8514F
:100050004D0A03E1020ECF6F07D0C8514F0A03E1EA
:10006000160ECF6F01D0CF6B76D0C851440A05E190
:10007000010E5E6E280ECF6F01D0CF6B6CD0C851D1
:100080004F0A03E10C0ECF6F01D0CF6B64D0C85183
:100090004B0A05E1020E5E6E280ECF6F01D0CF6BCA
:1000A0005AD0C8514E0A03E1170ECF6F01D0CF6B63
:1000B00052D0C8514E0A06E1030E5E6E010ECA6FA1
:1000C0005EC0C9F0CF6B47D0C8514E0A03E1200E85
:1000D000CF6F01D0CF6B3FD0C851440A05E1040E69
:1000E0005E6E280ECF6F01D0CF6B35D0C8510D0A90
:1000F00003E1290ECF6F01D0CF6B2DD0C8510A0A72
:1001000004E1010ECA6F5EC0C9F0CF6B24D0CF6B83
:1001100022D0CF51000A8AE0CF51010A98E0CF5196
:10012000020AA3E0CF510B0AAAE0CF510C0AAFE0BC
:10013000CF51160AB6E0CF51170ABBE0CF511F0AC4
:10014000C3E0CF51200AC8E0CF51280ACFE0CF51F9
:10015000290AD4E0DCD71BD0C8510D0A0CE1D30E1C
:10016000E16E000EE26ED251E126D8B0E22AE66AD4
:10017000010EC76F0BD0D30EE16E000EE26ED251AE
:10018000E126D8B0E22AC8C0E6FFD22B9E9A16C05C
:1001900000F015C001F017C0E1FF18C0E2FF110028
:1001A000020E0C6E080E0D6E0D2EFED70C2EFCD717
:1001B00000001200730E0C6E470E0D6E0D2EFED752
:1001C0000C2EFCD7000000001200050E0D6E0D2E47
:1001D000FED71200ACB202D00000FCD7F8C0ADFFD1
:1001E00012000001F8BF02D08A9601D08A86F8BDBD
:1001F00002D08A9401D08A84F8BB02D08A9201D0BE
:100200008A82F8B902D08A9001D08A80D1B102D016
:100210008A8801D08A988A8AD8DF8A9AF8B702D069
:100220008A9601D08A86F8B502D08A9401D08A8451
:10023000F8B302D08A9201D08A82F8B102D08A90B3
:1002400001D08A80D1B102D08A8801D08A988A8A66
:10025000BCDF8A9AD1A102D0ADDF01D0A1DF1200AC
:100260000001CA5304E0CA6BC9C000F001D0006AA3
:1002700012000001F76BF4C0E9FFF5C0EAFFEECF12
:10028000F6F0F651000A0EE0F6C0F8F0A3DF000128
:10029000F72BF751F425E96E000EF521EA6EEECF4B
:1002A000F6F0EFD712000001D191F4C0F8F099DF19
:1002B000D18112000900F5CFE6FF0006FBE101063F
:1002C000F9E11200939A9398939093929394939652
:1002D0008A9A8A988A968A948A928A906BDF6ADFD1
:1002E00069DF8A828A808A8A70DF8A9A63DF8A8AD3
:1002F0006CDF8A9A5FDF8A8A68DF8A9A5BDF8A907E
:100300008A8A63DF8A9A56DF8A8A5FDF8A9A8A92AC
:100310008A868A8A5ADF8A9A4DDF8A968A808A8AF2
:1003200054DF8A9A8A908A8A50DF8A9A43DF8A8ABF
:100330004CDF8A9A8A808A8A48DF8A9A3BDF8A90D1
:100340008A8A43DF8A9A8A868A848A828A808A8A0B
:100350003CDF8A9A2FDF0001D1811200AECF01F07D
:10036000ABA202D0AB98AB8801C000F01200D40E53
:100370000001CB6F010ECC6FF80ECD6F000ECE6F6B
:100380005C0EEB6F030EEC6F000EED6F000EEE6F68
:10039000FF0EE36FFF0EE46F000EE56F000EE66FD9
:1003A000FF0EE76FFF0EE86F000EE96F000EEA6FB9
:1003B000AC8A900EAB6E948E949C9EAA03D0AECF66
:1003C00000F0FBD71200EFC002F0F0C003F0F2C063
:1003D00000F0F3C001F0010E0001F25F000EF35BCC
:1003E0000050011009E002C0E1FF03C0E2FFF1C0CC
:1003F000E6FF024A032AEBD7EFC000F0F0C001F09D
:100400001200B90E0001F46F000EF56F32DF290EF5
:100410000B6E960E0C6E7F0E0D6E0D2EFED70C2EF3
:10042000FCD70B2EFAD71CDF000E000A02E1010EEA
:100430000018E7E17E0EF46F000EF56F1ADF0D0E67
:10044000F86FC8DE290E0B6E960E0C6E7F0E0D6EC9
:100450000D2EFED70C2EFCD70B2EFAD701DF000E87
:10046000000A02E1020E0018E5E1690EF46F000EC9
:10047000F56FFFDE0D0EF86FADDE290E0B6E960EDA
:100480000C6E7F0E0D6E0D2EFED70C2EFCD70B2E94
:10049000FAD7E6DE000E000A02E1020E0018E5E1DE
:1004A000640EF46F000EF56FE4DE0D0EF86F92DE51
:1004B000290E0B6E960E0C6E7F0E0D6E0D2EFED756
:1004C0000C2EFCD70B2EFAD7CBDE000E000A02E171
:1004D000020E0018E5E15F0EF46F000EF56FC9DE45
:1004E0000D0EF86F77DE290E0B6E960E0C6E7F0EDA
:1004F0000D6E0D2EFED70C2EFCD70B2EFAD7B0DECC
:10050000000E000A02E1020E0018E5E1760EF46F1B
:10051000000EF56FAEDE0D0EF86F5CDE290E0B6E71
:10052000960E0C6E7F0E0D6E0D2EFED70C2EFCD788
:100530000B2EFAD795DE000E000A02E1020E00181B
:10054000E5E1720EF46F000EF56F93DE0D0EF86F9D
:1005500041DE290E0B6E960E0C6E7F0E0D6E0D2E6B
:10056000FED70C2EFCD70B2EFAD77ADE000E000A2F
:1005700002E1040E0018E5E1120010D0800E000127
:10058000EF6F1AD0C00EEF6F17D0940EEF6F14D02C
:10059000D40EEF6F11D0800EEF6F0ED00001EF512F
:1005A000010AECE0EF51020AEDE0EF51030AEDE041
:1005B000EF51040AEDE0EFD7F005006E0050EF2791
:1005C000EFC0F8F00EDED191F36BF351F125E96E37
:1005D000000EF221EA6EEE520BE0F351F125E96EC6
:1005E000000EF221EA6EEECFF4F05DDEF32BEDD7D4
:1005F000D18112002CEC04F00F01256B246B236BCE
:10060000010E0001D06FCF6BCA6BC96B5E6AC86BFD
:10061000010ED06FC76B9D8AF28CF28E53DE220ED4
:10062000AF6EAC84A4DE010E0001F86FDADD0C0EB3
:10063000F86FD7DD010EEF6F010EF06F260EF16F30
:10064000000EF26F9ADF020EEF6F030EF06F190EBD
:10065000F16F000EF26F91DF7A0E0B6EC10E0C6E11
:10066000810E0D6E0D2EFED70C2EFCD70B2EFAD759
:1006700000000000010EF86FB4DD010EEF6F010EF7
:10068000F06F520EF16F000EF26F77DF020EEF6F18
:10069000010EF06F420EF16F000EF26F6EDF7A0EF8
:1006A0000B6EC10E0C6E810E0D6E0D2EFED70C2E34
:1006B000FCD70B2EFAD700000000A3DED1DD000E20
:1006C000000A02E1030E001801E0F8D7010EF86FEE
:1006D00088DDD06BF29EC76B010EF86F82DD010ED4
:1006E000EF6F010EF06F370EF16F000EF26F45DF06
:1006F000520E0B6E2B0E0C6E000E0D6E0D2EFED7D5
:100700000C2EFCD70B2EFAD700009E0EF46F000EB5
:10071000F56FAFDD0D0EF86F5DDD010E0001F86FB6
:1007200060DD010EEF6F010EF06F910EF16F000EA4
:10073000F26F23DFD26BD30EEF6F000EF06FF16B11
:10074000100EF26F000EF36F3EDEF28EC75301E122
:10075000FDD7F29EC76B010EF86F43DD010EEF6F00
:10076000010EF06FBD0EF16F000EF26F06DFC00ECE
:10077000F86F37DDD26BD30EE96E000EEA6ED25100
:10078000E926D8B0EA2AEE50000A0DE0D30EE96E51
:10079000000EEA6ED251E926D8B0EA2AEECFF4F084
:1007A00082DDD22BE8D7C6D7FFD744656D6F2065B1
:1007B00078616D706C6500426C7565546F6F74681C
:1007C0002D436C69636B2100436F6E6E65637465C6
:1007D000642100506C656173652C20776169742E0B
:1007E0002E2E00436F6E6E656374696E6721000084
:1007F00053412C3100534D2C3000534F2C536C611E
:100800007665002D2D2D0053502C3132333400539A
:100810004E2C426C7565546F6F74682D436C696320
:100820006B00526563656976696E672E2E2E0042F5
:100830006C7565746F6F746820436C69636B2043DB
:100840006F6E6E6563746564210024242400526514
:100850006365697665643A0010EE19F0AE0E006EBD
:10086000010E016EAA0EF66E070EF76E000EF86E00
:100870005AEC01F01200FFFFFFFFFFFFFFFFFFFF39
:020000040030CA
:0E00000015137F7CF98B91FFFFC0FFE0FF40DE
:00000001FF
